{
  "_format": "hh-sol-artifact-1",
  "contractName": "TimeNFT",
  "sourceName": "contracts/TimeNFT.sol",
  "abi": [
    {
      "inputs": [
        {
          "internalType": "uint256",
          "name": "_price",
          "type": "uint256"
        }
      ],
      "stateMutability": "nonpayable",
      "type": "constructor"
    },
    {
      "anonymous": false,
      "inputs": [
        {
          "indexed": true,
          "internalType": "address",
          "name": "owner",
          "type": "address"
        },
        {
          "indexed": true,
          "internalType": "address",
          "name": "approved",
          "type": "address"
        },
        {
          "indexed": true,
          "internalType": "uint256",
          "name": "tokenId",
          "type": "uint256"
        }
      ],
      "name": "Approval",
      "type": "event"
    },
    {
      "anonymous": false,
      "inputs": [
        {
          "indexed": true,
          "internalType": "address",
          "name": "owner",
          "type": "address"
        },
        {
          "indexed": true,
          "internalType": "address",
          "name": "operator",
          "type": "address"
        },
        {
          "indexed": false,
          "internalType": "bool",
          "name": "approved",
          "type": "bool"
        }
      ],
      "name": "ApprovalForAll",
      "type": "event"
    },
    {
      "anonymous": false,
      "inputs": [
        {
          "indexed": true,
          "internalType": "address",
          "name": "previousOwner",
          "type": "address"
        },
        {
          "indexed": true,
          "internalType": "address",
          "name": "newOwner",
          "type": "address"
        }
      ],
      "name": "OwnershipTransferred",
      "type": "event"
    },
    {
      "anonymous": false,
      "inputs": [
        {
          "indexed": false,
          "internalType": "address",
          "name": "account",
          "type": "address"
        }
      ],
      "name": "Paused",
      "type": "event"
    },
    {
      "anonymous": false,
      "inputs": [
        {
          "indexed": true,
          "internalType": "address",
          "name": "from",
          "type": "address"
        },
        {
          "indexed": true,
          "internalType": "address",
          "name": "to",
          "type": "address"
        },
        {
          "indexed": true,
          "internalType": "uint256",
          "name": "tokenId",
          "type": "uint256"
        }
      ],
      "name": "Transfer",
      "type": "event"
    },
    {
      "anonymous": false,
      "inputs": [
        {
          "indexed": false,
          "internalType": "address",
          "name": "account",
          "type": "address"
        }
      ],
      "name": "Unpaused",
      "type": "event"
    },
    {
      "inputs": [
        {
          "internalType": "address",
          "name": "to",
          "type": "address"
        },
        {
          "internalType": "uint256",
          "name": "tokenId",
          "type": "uint256"
        }
      ],
      "name": "approve",
      "outputs": [],
      "stateMutability": "nonpayable",
      "type": "function"
    },
    {
      "inputs": [
        {
          "internalType": "address",
          "name": "owner",
          "type": "address"
        }
      ],
      "name": "balanceOf",
      "outputs": [
        {
          "internalType": "uint256",
          "name": "",
          "type": "uint256"
        }
      ],
      "stateMutability": "view",
      "type": "function"
    },
    {
      "inputs": [
        {
          "internalType": "uint256",
          "name": "tokenId",
          "type": "uint256"
        }
      ],
      "name": "claim",
      "outputs": [],
      "stateMutability": "payable",
      "type": "function"
    },
    {
      "inputs": [
        {
          "internalType": "uint256",
          "name": "tokenId",
          "type": "uint256"
        }
      ],
      "name": "getApproved",
      "outputs": [
        {
          "internalType": "address",
          "name": "",
          "type": "address"
        }
      ],
      "stateMutability": "view",
      "type": "function"
    },
    {
      "inputs": [
        {
          "internalType": "address",
          "name": "owner",
          "type": "address"
        },
        {
          "internalType": "address",
          "name": "operator",
          "type": "address"
        }
      ],
      "name": "isApprovedForAll",
      "outputs": [
        {
          "internalType": "bool",
          "name": "",
          "type": "bool"
        }
      ],
      "stateMutability": "view",
      "type": "function"
    },
    {
      "inputs": [
        {
          "internalType": "uint256",
          "name": "_id",
          "type": "uint256"
        }
      ],
      "name": "isOwned",
      "outputs": [
        {
          "internalType": "bool",
          "name": "",
          "type": "bool"
        }
      ],
      "stateMutability": "view",
      "type": "function"
    },
    {
      "inputs": [],
      "name": "name",
      "outputs": [
        {
          "internalType": "string",
          "name": "",
          "type": "string"
        }
      ],
      "stateMutability": "view",
      "type": "function"
    },
    {
      "inputs": [],
      "name": "owner",
      "outputs": [
        {
          "internalType": "address",
          "name": "",
          "type": "address"
        }
      ],
      "stateMutability": "view",
      "type": "function"
    },
    {
      "inputs": [
        {
          "internalType": "uint256",
          "name": "tokenId",
          "type": "uint256"
        }
      ],
      "name": "ownerOf",
      "outputs": [
        {
          "internalType": "address",
          "name": "",
          "type": "address"
        }
      ],
      "stateMutability": "view",
      "type": "function"
    },
    {
      "inputs": [],
      "name": "pause",
      "outputs": [],
      "stateMutability": "nonpayable",
      "type": "function"
    },
    {
      "inputs": [],
      "name": "paused",
      "outputs": [
        {
          "internalType": "bool",
          "name": "",
          "type": "bool"
        }
      ],
      "stateMutability": "view",
      "type": "function"
    },
    {
      "inputs": [],
      "name": "renounceOwnership",
      "outputs": [],
      "stateMutability": "nonpayable",
      "type": "function"
    },
    {
      "inputs": [
        {
          "internalType": "address",
          "name": "from",
          "type": "address"
        },
        {
          "internalType": "address",
          "name": "to",
          "type": "address"
        },
        {
          "internalType": "uint256",
          "name": "tokenId",
          "type": "uint256"
        }
      ],
      "name": "safeTransferFrom",
      "outputs": [],
      "stateMutability": "nonpayable",
      "type": "function"
    },
    {
      "inputs": [
        {
          "internalType": "address",
          "name": "from",
          "type": "address"
        },
        {
          "internalType": "address",
          "name": "to",
          "type": "address"
        },
        {
          "internalType": "uint256",
          "name": "tokenId",
          "type": "uint256"
        },
        {
          "internalType": "bytes",
          "name": "_data",
          "type": "bytes"
        }
      ],
      "name": "safeTransferFrom",
      "outputs": [],
      "stateMutability": "nonpayable",
      "type": "function"
    },
    {
      "inputs": [
        {
          "internalType": "address",
          "name": "operator",
          "type": "address"
        },
        {
          "internalType": "bool",
          "name": "approved",
          "type": "bool"
        }
      ],
      "name": "setApprovalForAll",
      "outputs": [],
      "stateMutability": "nonpayable",
      "type": "function"
    },
    {
      "inputs": [
        {
          "internalType": "bytes4",
          "name": "interfaceId",
          "type": "bytes4"
        }
      ],
      "name": "supportsInterface",
      "outputs": [
        {
          "internalType": "bool",
          "name": "",
          "type": "bool"
        }
      ],
      "stateMutability": "view",
      "type": "function"
    },
    {
      "inputs": [],
      "name": "symbol",
      "outputs": [
        {
          "internalType": "string",
          "name": "",
          "type": "string"
        }
      ],
      "stateMutability": "view",
      "type": "function"
    },
    {
      "inputs": [
        {
          "internalType": "uint256",
          "name": "tokenId",
          "type": "uint256"
        }
      ],
      "name": "tokenURI",
      "outputs": [
        {
          "internalType": "string",
          "name": "",
          "type": "string"
        }
      ],
      "stateMutability": "view",
      "type": "function"
    },
    {
      "inputs": [
        {
          "internalType": "address",
          "name": "from",
          "type": "address"
        },
        {
          "internalType": "address",
          "name": "to",
          "type": "address"
        },
        {
          "internalType": "uint256",
          "name": "tokenId",
          "type": "uint256"
        }
      ],
      "name": "transferFrom",
      "outputs": [],
      "stateMutability": "nonpayable",
      "type": "function"
    },
    {
      "inputs": [
        {
          "internalType": "address",
          "name": "newOwner",
          "type": "address"
        }
      ],
      "name": "transferOwnership",
      "outputs": [],
      "stateMutability": "nonpayable",
      "type": "function"
    },
    {
      "inputs": [],
      "name": "unpause",
      "outputs": [],
      "stateMutability": "nonpayable",
      "type": "function"
    },
    {
      "inputs": [
        {
          "internalType": "uint256",
          "name": "_tokenId",
          "type": "uint256"
        }
      ],
      "name": "withdrawNFT",
      "outputs": [
        {
          "internalType": "bool",
          "name": "",
          "type": "bool"
        }
      ],
      "stateMutability": "payable",
      "type": "function"
    }
  ],
  "bytecode": "0x60a06040523480156200001157600080fd5b5060405162004408380380620044088339810160408190526200003491620001b9565b6040805180820182526008815267446179205a45524f60c01b602080830191825283518085019094526006845265054494d4544360d41b908401528151919291620000829160009162000113565b5080516200009890600190602084019062000113565b5050600160065550620000ab33620000c1565b6007805460ff60a01b191690556080526200020f565b600780546001600160a01b038381166001600160a01b0319831681179093556040519116919082907f8be0079c531659141344cd1fd0a4f28419497f9722a3daafe3b4186f6b6457e090600090a35050565b8280546200012190620001d2565b90600052602060002090601f01602090048101928262000145576000855562000190565b82601f106200016057805160ff191683800117855562000190565b8280016001018555821562000190579182015b828111156200019057825182559160200191906001019062000173565b506200019e929150620001a2565b5090565b5b808211156200019e5760008155600101620001a3565b600060208284031215620001cb578081fd5b5051919050565b600181811c90821680620001e757607f821691505b602082108114156200020957634e487b7160e01b600052602260045260246000fd5b50919050565b6080516141ba6200024e60003960008181610ab401528181610ef101528181610f8a01528181611024015281816110be015261117401526141ba6000f3fe6080604052600436106101755760003560e01c80636352211e116100cb57806395d89b411161007f578063c87b56dd11610059578063c87b56dd146103e8578063e985e9c514610408578063f2fde38b1461045157600080fd5b806395d89b4114610393578063a22cb465146103a8578063b88d4fde146103c857600080fd5b8063715018a6116100b0578063715018a61461034b5780638456cb59146103605780638da5cb5b1461037557600080fd5b80636352211e146102fd57806370a082311461031d57600080fd5b806323b872dd1161012d57806342842e0e1161010757806342842e0e14610286578063599f689c146102a65780635c975abb146102de57600080fd5b806323b872dd1461023e578063379607f51461025e5780633f4ba83a1461027157600080fd5b806306fdde031161015e57806306fdde03146101c2578063081812fc146101e4578063095ea7b31461021c57600080fd5b806301ffc9a71461017a578063023245d7146101af575b600080fd5b34801561018657600080fd5b5061019a6101953660046129d0565b610471565b60405190151581526020015b60405180910390f35b61019a6101bd366004612a08565b61050e565b3480156101ce57600080fd5b506101d7610718565b6040516101a69190613280565b3480156101f057600080fd5b506102046101ff366004612a08565b6107aa565b6040516001600160a01b0390911681526020016101a6565b34801561022857600080fd5b5061023c6102373660046129a7565b610850565b005b34801561024a57600080fd5b5061023c61025936600461285d565b610982565b61023c61026c366004612a08565b610a09565b34801561027d57600080fd5b5061023c610b87565b34801561029257600080fd5b5061023c6102a136600461285d565b610beb565b3480156102b257600080fd5b5061019a6102c1366004612a08565b6000908152600260205260409020546001600160a01b0316151590565b3480156102ea57600080fd5b50600754600160a01b900460ff1661019a565b34801561030957600080fd5b50610204610318366004612a08565b610c06565b34801561032957600080fd5b5061033d610338366004612811565b610c91565b6040519081526020016101a6565b34801561035757600080fd5b5061023c610d2b565b34801561036c57600080fd5b5061023c610d8f565b34801561038157600080fd5b506007546001600160a01b0316610204565b34801561039f57600080fd5b506101d7610df1565b3480156103b457600080fd5b5061023c6103c336600461296d565b610e00565b3480156103d457600080fd5b5061023c6103e3366004612898565b610e0f565b3480156103f457600080fd5b506101d7610403366004612a08565b610e9d565b34801561041457600080fd5b5061019a61042336600461282b565b6001600160a01b03918216600090815260056020908152604080832093909416825291909152205460ff1690565b34801561045d57600080fd5b5061023c61046c366004612811565b611310565b60006001600160e01b031982167f80ac58cd0000000000000000000000000000000000000000000000000000000014806104d457506001600160e01b031982167f5b5e139f00000000000000000000000000000000000000000000000000000000145b8061050857507f01ffc9a7000000000000000000000000000000000000000000000000000000006001600160e01b03198316145b92915050565b60006105a082106105665760405162461bcd60e51b815260206004820152601060248201527f546f6b656e20494420696e76616c69640000000000000000000000000000000060448201526064015b60405180910390fd5b3361057083610c06565b6001600160a01b0316146105ec5760405162461bcd60e51b815260206004820152602160248201527f596f7520617265206e6f7420746865206f776e6572206f662074686973204e4660448201527f5400000000000000000000000000000000000000000000000000000000000000606482015260840161055d565b60008281526008602052604090205415801590610619575060008281526008602052604090206001015415155b6106655760405162461bcd60e51b815260206004820152600c60248201527f496e76616c696420757365720000000000000000000000000000000000000000604482015260640161055d565b60008281526008602052604090206001015442116106c55760405162461bcd60e51b815260206004820152601a60248201527f546f6f206561726c7920746f20726563656976652066756e6473000000000000604482015260640161055d565b6000828152600860205260408082208054838255600190910183905590519091339183156108fc0291849190818181858888f1935050505015801561070e573d6000803e3d6000fd5b5060019392505050565b60606000805461072790613343565b80601f016020809104026020016040519081016040528092919081815260200182805461075390613343565b80156107a05780601f10610775576101008083540402835291602001916107a0565b820191906000526020600020905b81548152906001019060200180831161078357829003601f168201915b5050505050905090565b6000818152600260205260408120546001600160a01b03166108345760405162461bcd60e51b815260206004820152602c60248201527f4552433732313a20617070726f76656420717565727920666f72206e6f6e657860448201527f697374656e7420746f6b656e0000000000000000000000000000000000000000606482015260840161055d565b506000908152600460205260409020546001600160a01b031690565b600061085b82610c06565b9050806001600160a01b0316836001600160a01b031614156108e55760405162461bcd60e51b815260206004820152602160248201527f4552433732313a20617070726f76616c20746f2063757272656e74206f776e6560448201527f7200000000000000000000000000000000000000000000000000000000000000606482015260840161055d565b336001600160a01b038216148061090157506109018133610423565b6109735760405162461bcd60e51b815260206004820152603860248201527f4552433732313a20617070726f76652063616c6c6572206973206e6f74206f7760448201527f6e6572206e6f7220617070726f76656420666f7220616c6c0000000000000000606482015260840161055d565b61097d83836113f2565b505050565b61098c338261146d565b6109fe5760405162461bcd60e51b815260206004820152603160248201527f4552433732313a207472616e736665722063616c6c6572206973206e6f74206f60448201527f776e6572206e6f7220617070726f766564000000000000000000000000000000606482015260840161055d565b61097d838383611575565b60026006541415610a5c5760405162461bcd60e51b815260206004820152601f60248201527f5265656e7472616e637947756172643a207265656e7472616e742063616c6c00604482015260640161055d565b60026006556105a08110610ab25760405162461bcd60e51b815260206004820152601060248201527f546f6b656e20494420696e76616c696400000000000000000000000000000000604482015260640161055d565b7f0000000000000000000000000000000000000000000000000000000000000000341015610b225760405162461bcd60e51b815260206004820152600f60248201527f4e6f7420656e6f7567682066756e640000000000000000000000000000000000604482015260640161055d565b610b2c338261175b565b6000610b40670de0b6b3a7640000346132ab565b610b4d90620151806132e1565b610b579042613293565b60408051808201825234815260208082019384526000958652600890529320925183555160019283015550600655565b6007546001600160a01b03163314610be15760405162461bcd60e51b815260206004820181905260248201527f4f776e61626c653a2063616c6c6572206973206e6f7420746865206f776e6572604482015260640161055d565b610be9611775565b565b61097d83838360405180602001604052806000815250610e0f565b6000818152600260205260408120546001600160a01b0316806105085760405162461bcd60e51b815260206004820152602960248201527f4552433732313a206f776e657220717565727920666f72206e6f6e657869737460448201527f656e7420746f6b656e0000000000000000000000000000000000000000000000606482015260840161055d565b60006001600160a01b038216610d0f5760405162461bcd60e51b815260206004820152602a60248201527f4552433732313a2062616c616e636520717565727920666f7220746865207a6560448201527f726f206164647265737300000000000000000000000000000000000000000000606482015260840161055d565b506001600160a01b031660009081526003602052604090205490565b6007546001600160a01b03163314610d855760405162461bcd60e51b815260206004820181905260248201527f4f776e61626c653a2063616c6c6572206973206e6f7420746865206f776e6572604482015260640161055d565b610be9600061181b565b6007546001600160a01b03163314610de95760405162461bcd60e51b815260206004820181905260248201527f4f776e61626c653a2063616c6c6572206973206e6f7420746865206f776e6572604482015260640161055d565b610be961187a565b60606001805461072790613343565b610e0b33838361190f565b5050565b610e19338361146d565b610e8b5760405162461bcd60e51b815260206004820152603160248201527f4552433732313a207472616e736665722063616c6c6572206973206e6f74206f60448201527f776e6572206e6f7220617070726f766564000000000000000000000000000000606482015260840161055d565b610e97848484846119de565b50505050565b604080518082018252600481527f7261726500000000000000000000000000000000000000000000000000000000602080830191909152825180840190935260018352600b60fb1b90830152606091610f177f0000000000000000000000000000000000000000000000000000000000000000600a6132e1565b6000858152600860205260409020541015610f85576040518060400160405280600681526020017f436f6d6d6f6e00000000000000000000000000000000000000000000000000008152509150604051806040016040528060018152602001600b60fb1b8152509050611296565b610fb07f000000000000000000000000000000000000000000000000000000000000000060326132e1565b600085815260086020526040902054101561101f576040518060400160405280600881526020017f556e636f6d6d6f6e0000000000000000000000000000000000000000000000008152509150604051806040016040528060028152602001610b0b60f31b8152509050611296565b61104a7f000000000000000000000000000000000000000000000000000000000000000060646132e1565b60008581526008602052604090205410156110b9576040518060400160405280600481526020017f52617265000000000000000000000000000000000000000000000000000000008152509150604051806040016040528060028152602001610b0b60f31b8152509050611296565b6110e57f00000000000000000000000000000000000000000000000000000000000000006103e86132e1565b600085815260086020526040902054101561116f576040518060400160405280600481526020017f457069630000000000000000000000000000000000000000000000000000000081525091506040518060400160405280600381526020017f58585800000000000000000000000000000000000000000000000000000000008152509050611296565b61119b7f00000000000000000000000000000000000000000000000000000000000000006127106132e1565b6000858152600860205260409020541015611225576040518060400160405280600981526020017f4c6567656e64617279000000000000000000000000000000000000000000000081525091506040518060400160405280600481526020017f58585858000000000000000000000000000000000000000000000000000000008152509050611296565b6040518060400160405280600781526020017f476f646c696b650000000000000000000000000000000000000000000000000081525091506040518060400160405280600581526020017f585858585800000000000000000000000000000000000000000000000000000081525090505b60006112a185611a5c565b905060006112e36112b187611b2e565b6112ba84611c7c565b86866040516020016112cf9493929190613047565b604051602081830303815290604052611c7c565b9050806040516020016112f69190613002565b60408051601f198184030181529190529695505050505050565b6007546001600160a01b0316331461136a5760405162461bcd60e51b815260206004820181905260248201527f4f776e61626c653a2063616c6c6572206973206e6f7420746865206f776e6572604482015260640161055d565b6001600160a01b0381166113e65760405162461bcd60e51b815260206004820152602660248201527f4f776e61626c653a206e6577206f776e657220697320746865207a65726f206160448201527f6464726573730000000000000000000000000000000000000000000000000000606482015260840161055d565b6113ef8161181b565b50565b6000818152600460205260409020805473ffffffffffffffffffffffffffffffffffffffff19166001600160a01b038416908117909155819061143482610c06565b6001600160a01b03167f8c5be1e5ebec7d5bd14f71427d1e84f3dd0314c0f7b2291e5b200ac8c7c3b92560405160405180910390a45050565b6000818152600260205260408120546001600160a01b03166114f75760405162461bcd60e51b815260206004820152603660248201527f4552433732314f776e6572436865636b3a206f70657261746f7220717565727960448201527f20666f72206e6f6e6578697374656e7420746f6b656e00000000000000000000606482015260840161055d565b600061150283610c06565b9050806001600160a01b0316846001600160a01b0316148061153d5750836001600160a01b0316611532846107aa565b6001600160a01b0316145b8061156d57506001600160a01b0380821660009081526005602090815260408083209388168352929052205460ff165b949350505050565b826001600160a01b031661158882610c06565b6001600160a01b0316146116045760405162461bcd60e51b815260206004820152602f60248201527f4552433732314f776e6572436865636b3a207472616e736665722066726f6d2060448201527f696e636f7272656374206f776e65720000000000000000000000000000000000606482015260840161055d565b6001600160a01b0382166116805760405162461bcd60e51b815260206004820152602e60248201527f4552433732314f776e6572436865636b3a207472616e7366657220746f20746860448201527f65207a65726f2061646472657373000000000000000000000000000000000000606482015260840161055d565b61168b838383611dde565b6116966000826113f2565b6001600160a01b03831660009081526003602052604081208054600192906116bf908490613300565b90915550506001600160a01b03821660009081526003602052604081208054600192906116ed908490613293565b9091555050600081815260026020526040808220805473ffffffffffffffffffffffffffffffffffffffff19166001600160a01b0386811691821790925591518493918716917fddf252ad1be2c89b69c2b068fc378daa952ba7f163c4a11628f55a4df523b3ef91a4505050565b610e0b828260405180602001604052806000815250611e38565b600754600160a01b900460ff166117ce5760405162461bcd60e51b815260206004820152601460248201527f5061757361626c653a206e6f7420706175736564000000000000000000000000604482015260640161055d565b6007805460ff60a01b191690557f5db9ee0a495bf2e6ff9c91a7834c1ba4fdd244a5e8aa4e537bd38aeae4b073aa335b6040516001600160a01b03909116815260200160405180910390a1565b600780546001600160a01b0383811673ffffffffffffffffffffffffffffffffffffffff19831681179093556040519116919082907f8be0079c531659141344cd1fd0a4f28419497f9722a3daafe3b4186f6b6457e090600090a35050565b600754600160a01b900460ff16156118d45760405162461bcd60e51b815260206004820152601060248201527f5061757361626c653a2070617573656400000000000000000000000000000000604482015260640161055d565b6007805460ff60a01b1916600160a01b1790557f62e78cea01bee320cd4e420270b5ea74000d11b0c9f74754ebdbfc544b05a2586117fe3390565b816001600160a01b0316836001600160a01b031614156119715760405162461bcd60e51b815260206004820152601960248201527f4552433732313a20617070726f766520746f2063616c6c657200000000000000604482015260640161055d565b6001600160a01b03838116600081815260056020908152604080832094871680845294825291829020805460ff191686151590811790915591519182527f17307eab39ab6107e8899845ad3d59bd9653f200f220920489ca2b5937696c31910160405180910390a3505050565b6119e9848484611575565b6119f584848484611eb6565b610e975760405162461bcd60e51b815260206004820152603260248201527f4552433732313a207472616e7366657220746f206e6f6e20455243373231526560448201527131b2b4bb32b91034b6b83632b6b2b73a32b960711b606482015260840161055d565b6060611a666127d7565b611a6f8361200e565b905060006040518060800160405280611aac84600060048110611aa257634e487b7160e01b600052603260045260246000fd5b60200201516120cc565b8152602001611ac184600160200201516121b8565b8152602001611ad684600260200201516122a4565b8152602001611aeb8460036020020151612390565b9052606081015160408083015160208085015185519351959650600095611b159594919201612cad565b60408051601f1981840301815291905295945050505050565b606081611b6e57505060408051808201909152600181527f3000000000000000000000000000000000000000000000000000000000000000602082015290565b8160005b8115611b985780611b828161337e565b9150611b919050600a836132ab565b9150611b72565b60008167ffffffffffffffff811115611bc157634e487b7160e01b600052604160045260246000fd5b6040519080825280601f01601f191660200182016040528015611beb576020820181803683370190505b5090505b841561156d57611c00600183613300565b9150611c0d600a86613399565b611c18906030613293565b60f81b818381518110611c3b57634e487b7160e01b600052603260045260246000fd5b60200101907effffffffffffffffffffffffffffffffffffffffffffffffffffffffffffff1916908160001a905350611c75600a866132ab565b9450611bef565b6060815160001415611c9c57505060408051602081019091526000815290565b6000604051806060016040528060408152602001613a3d6040913990506000600384516002611ccb9190613293565b611cd591906132ab565b611ce09060046132e1565b67ffffffffffffffff811115611d0657634e487b7160e01b600052604160045260246000fd5b6040519080825280601f01601f191660200182016040528015611d30576020820181803683370190505b509050600182016020820185865187015b80821015611d9c576003820191508151603f8160121c168501518453600184019350603f81600c1c168501518453600184019350603f8160061c168501518453600184019350603f8116850151845350600183019250611d41565b5050600386510660018114611db85760028114611dcb57611dd3565b603d6001830353603d6002830353611dd3565b603d60018303535b509195945050505050565b600754600160a01b900460ff161561097d5760405162461bcd60e51b815260206004820152601060248201527f5061757361626c653a2070617573656400000000000000000000000000000000604482015260640161055d565b611e42838361247c565b611e4f6000848484611eb6565b61097d5760405162461bcd60e51b815260206004820152603260248201527f4552433732313a207472616e7366657220746f206e6f6e20455243373231526560448201527131b2b4bb32b91034b6b83632b6b2b73a32b960711b606482015260840161055d565b60006001600160a01b0384163b1561200357604051630a85bd0160e11b81526001600160a01b0385169063150b7a0290611efa903390899088908890600401613244565b602060405180830381600087803b158015611f1457600080fd5b505af1925050508015611f44575060408051601f3d908101601f19168201909252611f41918101906129ec565b60015b611fe9573d808015611f72576040519150601f19603f3d011682016040523d82523d6000602084013e611f77565b606091505b508051611fe15760405162461bcd60e51b815260206004820152603260248201527f4552433732313a207472616e7366657220746f206e6f6e20455243373231526560448201527131b2b4bb32b91034b6b83632b6b2b73a32b960711b606482015260840161055d565b805181602001fd5b6001600160e01b031916630a85bd0160e11b14905061156d565b506001949350505050565b6120166127d7565b6000806120216127d7565b61202c603c866132ab565b9250600a8360ff16101561204c576000815260ff83166020820152612070565b612057600a846132bf565b60ff168152612067600a846133ad565b60ff1660208201525b61207b603c86613399565b9150600a8260ff16101561209e576000604082015260ff8216606082015261156d565b6120a9600a836132bf565b60ff1660408201526120bc600a836133ad565b60ff166060820152949350505050565b606060006040518060e001604052806040518060a0016040528060758152602001613fa66075913981526020016040518060a001604052806076815260200161410f6076913981526020016040518060a00160405280607a81526020016134a2607a913981526020016040518060a00160405280606f815260200161360b606f913981526020016040518060a00160405280607681526020016137e76076913981526020016040518060a00160405280607a81526020016136f4607a913981526020016040518060a001604052806075815260200161351c6075913990529050606061156d82856125d7565b606060006040518060e001604052806040518060a0016040528060798152602001613aef6079913981526020016040518060a00160405280607a8152602001613428607a913981526020016040518060a00160405280607a815260200161367a607a913981526020016040518060a0016040528060728152602001613a7d6072913981526020016040518060a00160405280607a8152602001613e41607a913981526020016040518060a00160405280607a8152602001613591607a913981526020016040518060a0016040528060798152602001613be26079913990529050606061156d82856125d7565b606060006040518060e001604052806040518060a001604052806079815260200161376e6079913981526020016040518060a00160405280607a8152602001613951607a913981526020016040518060a00160405280607a815260200161385d607a913981526020016040518060a0016040528060728152602001613f346072913981526020016040518060a00160405280607a8152602001613cd4607a913981526020016040518060a00160405280607a8152602001613d4e607a913981526020016040518060a0016040528060798152602001613ebb6079913990529050606061156d82856125d7565b606060006040518060e001604052806040518060a0016040528060798152602001613dc86079913981526020016040518060a00160405280607a8152602001614095607a913981526020016040518060a00160405280607a8152602001613b68607a913981526020016040518060a00160405280607281526020016139cb6072913981526020016040518060a00160405280607a81526020016138d7607a913981526020016040518060a00160405280607a815260200161401b607a913981526020016040518060a0016040528060798152602001613c5b6079913990529050606061156d82856125d7565b6001600160a01b0382166124d25760405162461bcd60e51b815260206004820181905260248201527f4552433732313a206d696e7420746f20746865207a65726f2061646472657373604482015260640161055d565b6000818152600260205260409020546001600160a01b0316156125375760405162461bcd60e51b815260206004820152601c60248201527f4552433732313a20746f6b656e20616c7265616479206d696e74656400000000604482015260640161055d565b61254360008383611dde565b6001600160a01b038216600090815260036020526040812080546001929061256c908490613293565b9091555050600081815260026020526040808220805473ffffffffffffffffffffffffffffffffffffffff19166001600160a01b03861690811790915590518392907fddf252ad1be2c89b69c2b068fc378daa952ba7f163c4a11628f55a4df523b3ef908290a45050565b60608060ff831661262b57835160208501518560025b60209081029190910151608088015160a089015160c08a015160405161261597969501612b9c565b60405160208183030381529060405290506127d0565b8260ff16600114156126515760408085015160a086015191516126159290602001612a68565b8260ff166002141561268e578351604085015160608601518660045b60200201518760066020020151604051602001612615959493929190612b31565b8260ff16600314156126b25783518460025b6020020151606086015186600561266d565b8260ff16600414156126e457602080850151604080870151606088015160a08901519251612615959293919201612ada565b8260ff16600514156126fa5783518460016126a0565b8260ff166006141561271557835160208501518560036125ed565b8260ff166007141561273e57835160408086015160a08701519151612615939290602001612a97565b8260ff1660081415612781578351602080860151604080880151606089015160808a015160a08b015160c08c015194516126159897949593949293919201612c1b565b8260ff16600914156127d0578351602080860151604080880151606089015160a08a015160c08b015193516127be97969394929391929101612b9c565b60405160208183030381529060405290505b9392505050565b60405180608001604052806004906020820280368337509192915050565b80356001600160a01b038116811461280c57600080fd5b919050565b600060208284031215612822578081fd5b6127d0826127f5565b6000806040838503121561283d578081fd5b612846836127f5565b9150612854602084016127f5565b90509250929050565b600080600060608486031215612871578081fd5b61287a846127f5565b9250612888602085016127f5565b9150604084013590509250925092565b600080600080608085870312156128ad578081fd5b6128b6856127f5565b93506128c4602086016127f5565b925060408501359150606085013567ffffffffffffffff808211156128e7578283fd5b818701915087601f8301126128fa578283fd5b81358181111561290c5761290c6133fb565b604051601f8201601f19908116603f01168101908382118183101715612934576129346133fb565b816040528281528a602084870101111561294c578586fd5b82602086016020830137918201602001949094529598949750929550505050565b6000806040838503121561297f578182fd5b612988836127f5565b91506020830135801515811461299c578182fd5b809150509250929050565b600080604083850312156129b9578182fd5b6129c2836127f5565b946020939093013593505050565b6000602082840312156129e1578081fd5b81356127d081613411565b6000602082840312156129fd578081fd5b81516127d081613411565b600060208284031215612a19578081fd5b5035919050565b60008151808452612a38816020860160208601613317565b601f01601f19169290920160200192915050565b60008151612a5e818560208601613317565b9290920192915050565b60008351612a7a818460208801613317565b835190830190612a8e818360208801613317565b01949350505050565b60008451612aa9818460208901613317565b845190830190612abd818360208901613317565b8451910190612ad0818360208801613317565b0195945050505050565b60008551612aec818460208a01613317565b855190830190612b00818360208a01613317565b8551910190612b13818360208901613317565b8451910190612b26818360208801613317565b019695505050505050565b60008651612b43818460208b01613317565b865190830190612b57818360208b01613317565b8651910190612b6a818360208a01613317565b8551910190612b7d818360208901613317565b8451910190612b90818360208801613317565b01979650505050505050565b600087516020612baf8285838d01613317565b885191840191612bc28184848d01613317565b8851920191612bd48184848c01613317565b8751920191612be68184848b01613317565b8651920191612bf88184848a01613317565b8551920191612c0a8184848901613317565b919091019998505050505050505050565b600088516020612c2e8285838e01613317565b895191840191612c418184848e01613317565b8951920191612c538184848d01613317565b8851920191612c658184848c01613317565b8751920191612c778184848b01613317565b8651920191612c898184848a01613317565b8551920191612c9b8184848901613317565b919091019a9950505050505050505050565b7f3c7376672076696577426f783d2730203020353030203530302720786d6c6e7381527f3d27687474703a2f2f7777772e77332e6f72672f323030302f7376672720786d60208201527f6c6e733a62783d2768747470733a2f2f626f78792d7376672e636f6d273e3c6760408201527f207374726f6b653d2723666666666666272066696c6c3d27236666666666272060608201527f7472616e73666f726d3d276d617472697828342e3833373038322c20302c203060808201527f2c20352e3331303937322c2035392e3231393436372c202d34352e343737313560a08201527f2927203e3c672069643d276d696e75746573273e3c673e00000000000000000060c082015260008551612dc98160d7850160208a01613317565b661e17b39f1e339f60c91b60d7918401918201528551612df08160de840160208a01613317565b612ff6612e4d612e47612e34612e2e60de868801017f203c2f673e3c2f673e3c672069643d27686f75727327203e3c673e00000000008152601b0190565b8a612a4c565b661e17b39f1e339f60c91b815260070190565b87612a4c565b7f203c2f673e3c2f673e3c672069643d27646f7473273e3c673e3c636972636c6581527f2063783d273430272063793d2735302720723d273227207374796c653d27706160208201527f696e742d6f726465723a207374726f6b653b207374726f6b653a20726762283060408201527f2c20302c2030293b272f3e203c636972636c652063783d273430272063793d2760608201527f35382720723d273227207374796c653d277061696e742d6f726465723a20737460808201527f726f6b653b207374726f6b653a2072676228302c20302c2030293b272f3e3c2f60a08201527f673e3c2f673e3c2f673e3c74657874207374796c653d2766696c6c3a2072676260c08201527f2835312c2035312c203531293b20666f6e742d66616d696c793a20496d70616360e08201527f743b20666f6e742d73697a653a2033322e3270783b2077686974652d737061636101008201527f653a207072653b2720783d273431392e3439312720793d273439312e313533276101208201527f3e44415920303c2f746578743e3c2f7376673e000000000000000000000000006101408201526101530190565b98975050505050505050565b7f646174613a6170706c69636174696f6e2f6a736f6e3b6261736536342c00000081526000825161303a81601d850160208701613317565b91909101601d0192915050565b7f7b226e616d65223a202254696d6520000000000000000000000000000000000081526000855161307f81600f850160208a01613317565b7f222c000000000000000000000000000000000000000000000000000000000000600f918401918201527f226465736372697074696f6e223a2022546865206d6f73742076616c7561626c60118201527f65207468696e6720696e2074686520656e7469726520776f726c64222c20226960318201527f6d616765223a2022646174613a696d6167652f7376672b786d6c3b626173653660518201527f342c00000000000000000000000000000000000000000000000000000000000060718201528551613154816073840160208a01613317565b7f222c202261747472696275746573223a5b7b2274726169745f74797065223a22607392909101918201527f526172697479222c2276616c7565223a22000000000000000000000000000000609382015261323961321061320a6131bb60a4850189612a4c565b7f227d2c7b2274726169745f74797065223a2252617269747920416d6f756e742281527f2c2276616c7565223a22000000000000000000000000000000000000000000006020820152602a0190565b86612a4c565b7f227d5d7d00000000000000000000000000000000000000000000000000000000815260040190565b979650505050505050565b60006001600160a01b038087168352808616602084015250836040830152608060608301526132766080830184612a20565b9695505050505050565b6020815260006127d06020830184612a20565b600082198211156132a6576132a66133cf565b500190565b6000826132ba576132ba6133e5565b500490565b600060ff8316806132d2576132d26133e5565b8060ff84160491505092915050565b60008160001904831182151516156132fb576132fb6133cf565b500290565b600082821015613312576133126133cf565b500390565b60005b8381101561333257818101518382015260200161331a565b83811115610e975750506000910152565b600181811c9082168061335757607f821691505b6020821081141561337857634e487b7160e01b600052602260045260246000fd5b50919050565b6000600019821415613392576133926133cf565b5060010190565b6000826133a8576133a86133e5565b500690565b600060ff8316806133c0576133c06133e5565b8060ff84160691505092915050565b634e487b7160e01b600052601160045260246000fd5b634e487b7160e01b600052601260045260246000fd5b634e487b7160e01b600052604160045260246000fd5b6001600160e01b0319811681146113ef57600080fdfe3c706174682069643d2762322720643d274d32312c34306c332c3376386c2d332c3263302c302d312d312d312d33762d374332302c34312c32312c34302c32312c34307a27207374796c653d277061696e742d6f726465723a207374726f6b653b207374726f6b653a2072676228302c20302c2030293b272f3e3c706174682069643d2761332720643d274d31372c34306c2d332c3376386c332c3263302c302c312d312c312d33762d374331382c34312c31372c34302c31372c34307a27207374796c653d277061696e742d6f726465723a207374726f6b653b207374726f6b653a2072676228302c20302c2030293b272f3e3c706174682069643d2761372720643d274d342c36396c332d3368366c332c3363302c302d312c312d332c31682d3643352c37302c342c36392c342c36397a27207374796c653d277061696e742d6f726465723a207374726f6b653b207374726f6b653a2072676228302c20302c2030293b272f3e3c706174682069643d2762362720643d274d33352c35356c2d332c3276386c332c3363302c302c312d312c312d33762d374333362c35362c33352c35352c33352c35357a27207374796c653d277061696e742d6f726465723a207374726f6b653b207374726f6b653a2072676228302c20302c2030293b272f3e3c706f6c79676f6e2069643d2761342720706f696e74733d27372c35322031332c35322031362c35342031332c353620372c353620342c353427207374796c653d277061696e742d6f726465723a207374726f6b653b207374726f6b653a2072676228302c20302c2030293b272f3e3c706174682069643d2762332720643d274d33352c34306c2d332c3376386c332c3263302c302c312d312c312d33762d374333362c34312c33352c34302c33352c34307a27207374796c653d277061696e742d6f726465723a207374726f6b653b207374726f6b653a2072676228302c20302c2030293b272f3e3c706174682069643d2761362720643d274d31372c35356c2d332c3276386c332c3363302c302c312d312c312d33762d374331382c35362c31372c35352c31372c35357a27207374796c653d277061696e742d6f726465723a207374726f6b653b207374726f6b653a2072676228302c20302c2030293b272f3e3c706174682069643d2763312720643d274d34362c33396c332c3368366c332d3363302c302d312d312d332d31682d364334372c33382c34362c33392c34362c33397a27207374796c653d277061696e742d6f726465723a207374726f6b653b207374726f6b653a2072676228302c20302c2030293b272f3e3c706174682069643d2761352720643d274d332c35356c332c3276386c2d332c3363302c302d312d312d312d33762d3743322c35362c332c35352c332c35357a27207374796c653d277061696e742d6f726465723a207374726f6b653b207374726f6b653a2072676228302c20302c2030293b272f3e3c706174682069643d2763332720643d274d35392c34306c2d332c3376386c332c3263302c302c312d312c312d33762d374336302c34312c35392c34302c35392c34307a27207374796c653d277061696e742d6f726465723a207374726f6b653b207374726f6b653a2072676228302c20302c2030293b272f3e3c706174682069643d2764352720643d274d36332c35356c332c3276386c2d332c3363302c302d312d312d312d33762d374336322c35362c36332c35352c36332c35357a27207374796c653d277061696e742d6f726465723a207374726f6b653b207374726f6b653a2072676228302c20302c2030293b272f3e3c706174682069643d2763322720643d274d34352c34306c332c3376386c2d332c3263302c302d312d312d312d33762d374334342c34312c34352c34302c34352c34307a27207374796c653d277061696e742d6f726465723a207374726f6b653b207374726f6b653a2072676228302c20302c2030293b272f3e3c706f6c79676f6e2069643d2764342720706f696e74733d2736372c35322037332c35322037362c35342037332c35362036372c35362036342c353427207374796c653d277061696e742d6f726465723a207374726f6b653b207374726f6b653a2072676228302c20302c2030293b272f3e4142434445464748494a4b4c4d4e4f505152535455565758595a6162636465666768696a6b6c6d6e6f707172737475767778797a303132333435363738392b2f3c706f6c79676f6e2069643d2762342720706f696e74733d2732352c35322033312c35322033342c35342033312c35362032352c35362032322c353427207374796c653d277061696e742d6f726465723a207374726f6b653b207374726f6b653a2072676228302c20302c2030293b272f3e3c706174682069643d2762312720643d274d32322c33396c332c3368366c332d3363302c302d312d312d332d31682d364332332c33382c32322c33392c32322c33397a27207374796c653d277061696e742d6f726465723a207374726f6b653b207374726f6b653a2072676228302c20302c2030293b272f3e3c706174682069643d2764332720643d274d37372c34306c2d332c3376386c332c3263302c302c312d312c312d33762d374337382c34312c37372c34302c37372c34307a27207374796c653d277061696e742d6f726465723a207374726f6b653b207374726f6b653a2072676228302c20302c2030293b272f3e3c706174682069643d2762372720643d274d32322c36396c332d3368366c332c3363302c302d312c312d332c31682d364332332c37302c32322c36392c32322c36397a27207374796c653d277061696e742d6f726465723a207374726f6b653b207374726f6b653a2072676228302c20302c2030293b272f3e3c706174682069643d2764372720643d274d36342c36396c332d3368366c332c3363302c302d312c312d332c31682d364336352c37302c36342c36392c36342c36397a27207374796c653d277061696e742d6f726465723a207374726f6b653b207374726f6b653a2072676228302c20302c2030293b272f3e3c706174682069643d2763352720643d274d34352c35356c332c3276386c2d332c3363302c302d312d312d312d33762d374334342c35362c34352c35352c34352c35357a27207374796c653d277061696e742d6f726465723a207374726f6b653b207374726f6b653a2072676228302c20302c2030293b272f3e3c706174682069643d2763362720643d274d35392c35356c2d332c3276386c332c3363302c302c312d312c312d33762d374336302c35362c35392c35352c35392c35357a27207374796c653d277061696e742d6f726465723a207374726f6b653b207374726f6b653a2072676228302c20302c2030293b272f3e3c706174682069643d2764312720643d274d36342c33396c332c3368366c332d3363302c302d312d312d332d31682d364336352c33382c36342c33392c36342c33397a27207374796c653d277061696e742d6f726465723a207374726f6b653b207374726f6b653a2072676228302c20302c2030293b272f3e3c706174682069643d2762352720643d274d32312c35356c332c3276386c2d332c3363302c302d312d312d312d33762d374332302c35362c32312c35352c32312c35357a27207374796c653d277061696e742d6f726465723a207374726f6b653b207374726f6b653a2072676228302c20302c2030293b272f3e3c706174682069643d2763372720643d274d34362c36396c332d3368366c332c3363302c302d312c312d332c31682d364334372c37302c34362c36392c34362c36397a27207374796c653d277061696e742d6f726465723a207374726f6b653b207374726f6b653a2072676228302c20302c2030293b272f3e3c706f6c79676f6e2069643d2763342720706f696e74733d2734392c35322035352c35322035382c35342035352c35362034392c35362034362c353427207374796c653d277061696e742d6f726465723a207374726f6b653b207374726f6b653a2072676228302c20302c2030293b272f3e3c706174682069643d2761312720643d274d342c33396c332c3368366c332d3363302c302d312d312d332d31682d3643352c33382c342c33392c342c33397a27207374796c653d277061696e742d6f726465723a207374726f6b653b207374726f6b653a2072676228302c20302c2030293b272f3e3c706174682069643d2764362720643d274d37372c35356c2d332c3276386c332c3363302c302c312d312c312d33762d374337382c35362c37372c35352c37372c35357a27207374796c653d277061696e742d6f726465723a207374726f6b653b207374726f6b653a2072676228302c20302c2030293b272f3e3c706174682069643d2764322720643d274d36332c34306c332c3376386c2d332c3263302c302d312d312d312d33762d374336322c34312c36332c34302c36332c34307a27207374796c653d277061696e742d6f726465723a207374726f6b653b207374726f6b653a2072676228302c20302c2030293b272f3e3c706174682069643d2761322720643d274d332c34306c332c3376386c2d332c3263302c302d312d312d312d33762d3743322c34312c332c34302c332c34307a27207374796c653d277061696e742d6f726465723a207374726f6b653b207374726f6b653a2072676228302c20302c2030293b272f3ea2646970667358221220e191c912c5997c1423cdf911d5c88cec34324bc8c5cb6dea7a38fba064cdbba264736f6c63430008040033",
  "linkReferences": {},
  "deployedLinkReferences": {}
}