{
  "_format": "hh-sol-artifact-1",
  "contractName": "TimeNFT",
  "sourceName": "contracts/TimeNFT.sol",
  "abi": [
    {
      "inputs": [
        {
          "internalType": "uint256",
          "name": "_price",
          "type": "uint256"
        }
      ],
      "stateMutability": "nonpayable",
      "type": "constructor"
    },
    {
      "anonymous": false,
      "inputs": [
        {
          "indexed": true,
          "internalType": "address",
          "name": "owner",
          "type": "address"
        },
        {
          "indexed": true,
          "internalType": "address",
          "name": "approved",
          "type": "address"
        },
        {
          "indexed": true,
          "internalType": "uint256",
          "name": "tokenId",
          "type": "uint256"
        }
      ],
      "name": "Approval",
      "type": "event"
    },
    {
      "anonymous": false,
      "inputs": [
        {
          "indexed": true,
          "internalType": "address",
          "name": "owner",
          "type": "address"
        },
        {
          "indexed": true,
          "internalType": "address",
          "name": "operator",
          "type": "address"
        },
        {
          "indexed": false,
          "internalType": "bool",
          "name": "approved",
          "type": "bool"
        }
      ],
      "name": "ApprovalForAll",
      "type": "event"
    },
    {
      "anonymous": false,
      "inputs": [
        {
          "indexed": true,
          "internalType": "address",
          "name": "previousOwner",
          "type": "address"
        },
        {
          "indexed": true,
          "internalType": "address",
          "name": "newOwner",
          "type": "address"
        }
      ],
      "name": "OwnershipTransferred",
      "type": "event"
    },
    {
      "anonymous": false,
      "inputs": [
        {
          "indexed": false,
          "internalType": "address",
          "name": "account",
          "type": "address"
        }
      ],
      "name": "Paused",
      "type": "event"
    },
    {
      "anonymous": false,
      "inputs": [
        {
          "indexed": true,
          "internalType": "address",
          "name": "from",
          "type": "address"
        },
        {
          "indexed": true,
          "internalType": "address",
          "name": "to",
          "type": "address"
        },
        {
          "indexed": true,
          "internalType": "uint256",
          "name": "tokenId",
          "type": "uint256"
        }
      ],
      "name": "Transfer",
      "type": "event"
    },
    {
      "anonymous": false,
      "inputs": [
        {
          "indexed": false,
          "internalType": "address",
          "name": "account",
          "type": "address"
        }
      ],
      "name": "Unpaused",
      "type": "event"
    },
    {
      "inputs": [
        {
          "internalType": "address",
          "name": "to",
          "type": "address"
        },
        {
          "internalType": "uint256",
          "name": "tokenId",
          "type": "uint256"
        }
      ],
      "name": "approve",
      "outputs": [],
      "stateMutability": "nonpayable",
      "type": "function"
    },
    {
      "inputs": [
        {
          "internalType": "address",
          "name": "owner",
          "type": "address"
        }
      ],
      "name": "balanceOf",
      "outputs": [
        {
          "internalType": "uint256",
          "name": "",
          "type": "uint256"
        }
      ],
      "stateMutability": "view",
      "type": "function"
    },
    {
      "inputs": [
        {
          "internalType": "uint256",
          "name": "tokenId",
          "type": "uint256"
        }
      ],
      "name": "claim",
      "outputs": [],
      "stateMutability": "payable",
      "type": "function"
    },
    {
      "inputs": [
        {
          "internalType": "uint256",
          "name": "tokenId",
          "type": "uint256"
        }
      ],
      "name": "getApproved",
      "outputs": [
        {
          "internalType": "address",
          "name": "",
          "type": "address"
        }
      ],
      "stateMutability": "view",
      "type": "function"
    },
    {
      "inputs": [
        {
          "internalType": "address",
          "name": "owner",
          "type": "address"
        },
        {
          "internalType": "address",
          "name": "operator",
          "type": "address"
        }
      ],
      "name": "isApprovedForAll",
      "outputs": [
        {
          "internalType": "bool",
          "name": "",
          "type": "bool"
        }
      ],
      "stateMutability": "view",
      "type": "function"
    },
    {
      "inputs": [
        {
          "internalType": "uint256",
          "name": "_id",
          "type": "uint256"
        }
      ],
      "name": "isOwned",
      "outputs": [
        {
          "internalType": "bool",
          "name": "",
          "type": "bool"
        }
      ],
      "stateMutability": "view",
      "type": "function"
    },
    {
      "inputs": [],
      "name": "name",
      "outputs": [
        {
          "internalType": "string",
          "name": "",
          "type": "string"
        }
      ],
      "stateMutability": "view",
      "type": "function"
    },
    {
      "inputs": [],
      "name": "owner",
      "outputs": [
        {
          "internalType": "address",
          "name": "",
          "type": "address"
        }
      ],
      "stateMutability": "view",
      "type": "function"
    },
    {
      "inputs": [
        {
          "internalType": "uint256",
          "name": "tokenId",
          "type": "uint256"
        }
      ],
      "name": "ownerOf",
      "outputs": [
        {
          "internalType": "address",
          "name": "",
          "type": "address"
        }
      ],
      "stateMutability": "view",
      "type": "function"
    },
    {
      "inputs": [],
      "name": "pause",
      "outputs": [],
      "stateMutability": "nonpayable",
      "type": "function"
    },
    {
      "inputs": [],
      "name": "paused",
      "outputs": [
        {
          "internalType": "bool",
          "name": "",
          "type": "bool"
        }
      ],
      "stateMutability": "view",
      "type": "function"
    },
    {
      "inputs": [],
      "name": "renounceOwnership",
      "outputs": [],
      "stateMutability": "nonpayable",
      "type": "function"
    },
    {
      "inputs": [
        {
          "internalType": "address",
          "name": "from",
          "type": "address"
        },
        {
          "internalType": "address",
          "name": "to",
          "type": "address"
        },
        {
          "internalType": "uint256",
          "name": "tokenId",
          "type": "uint256"
        }
      ],
      "name": "safeTransferFrom",
      "outputs": [],
      "stateMutability": "nonpayable",
      "type": "function"
    },
    {
      "inputs": [
        {
          "internalType": "address",
          "name": "from",
          "type": "address"
        },
        {
          "internalType": "address",
          "name": "to",
          "type": "address"
        },
        {
          "internalType": "uint256",
          "name": "tokenId",
          "type": "uint256"
        },
        {
          "internalType": "bytes",
          "name": "_data",
          "type": "bytes"
        }
      ],
      "name": "safeTransferFrom",
      "outputs": [],
      "stateMutability": "nonpayable",
      "type": "function"
    },
    {
      "inputs": [
        {
          "internalType": "address",
          "name": "operator",
          "type": "address"
        },
        {
          "internalType": "bool",
          "name": "approved",
          "type": "bool"
        }
      ],
      "name": "setApprovalForAll",
      "outputs": [],
      "stateMutability": "nonpayable",
      "type": "function"
    },
    {
      "inputs": [
        {
          "internalType": "bytes4",
          "name": "interfaceId",
          "type": "bytes4"
        }
      ],
      "name": "supportsInterface",
      "outputs": [
        {
          "internalType": "bool",
          "name": "",
          "type": "bool"
        }
      ],
      "stateMutability": "view",
      "type": "function"
    },
    {
      "inputs": [],
      "name": "symbol",
      "outputs": [
        {
          "internalType": "string",
          "name": "",
          "type": "string"
        }
      ],
      "stateMutability": "view",
      "type": "function"
    },
    {
      "inputs": [
        {
          "internalType": "uint256",
          "name": "tokenId",
          "type": "uint256"
        }
      ],
      "name": "tokenURI",
      "outputs": [
        {
          "internalType": "string",
          "name": "",
          "type": "string"
        }
      ],
      "stateMutability": "view",
      "type": "function"
    },
    {
      "inputs": [
        {
          "internalType": "address",
          "name": "from",
          "type": "address"
        },
        {
          "internalType": "address",
          "name": "to",
          "type": "address"
        },
        {
          "internalType": "uint256",
          "name": "tokenId",
          "type": "uint256"
        }
      ],
      "name": "transferFrom",
      "outputs": [],
      "stateMutability": "nonpayable",
      "type": "function"
    },
    {
      "inputs": [
        {
          "internalType": "address",
          "name": "newOwner",
          "type": "address"
        }
      ],
      "name": "transferOwnership",
      "outputs": [],
      "stateMutability": "nonpayable",
      "type": "function"
    },
    {
      "inputs": [],
      "name": "unpause",
      "outputs": [],
      "stateMutability": "nonpayable",
      "type": "function"
    },
    {
      "inputs": [
        {
          "internalType": "uint256",
          "name": "_tokenId",
          "type": "uint256"
        }
      ],
      "name": "withdrawNFT",
      "outputs": [
        {
          "internalType": "bool",
          "name": "",
          "type": "bool"
        }
      ],
      "stateMutability": "payable",
      "type": "function"
    }
  ],
  "bytecode": "0x60a06040523480156200001157600080fd5b5060405162004385380380620043858339810160408190526200003491620001b7565b6040805180820182526008815267446179205a45524f60c01b60208083019182528351808501909452600484526354494d4560e01b908401528151919291620000809160009162000111565b5080516200009690600190602084019062000111565b5050600160065550620000a933620000bf565b6007805460ff60a01b191690556080526200020d565b600780546001600160a01b038381166001600160a01b0319831681179093556040519116919082907f8be0079c531659141344cd1fd0a4f28419497f9722a3daafe3b4186f6b6457e090600090a35050565b8280546200011f90620001d0565b90600052602060002090601f0160209004810192826200014357600085556200018e565b82601f106200015e57805160ff19168380011785556200018e565b828001600101855582156200018e579182015b828111156200018e57825182559160200191906001019062000171565b506200019c929150620001a0565b5090565b5b808211156200019c5760008155600101620001a1565b600060208284031215620001c9578081fd5b5051919050565b600181811c90821680620001e557607f821691505b602082108114156200020757634e487b7160e01b600052602260045260246000fd5b50919050565b6080516141396200024c60003960008181610ab401528181610ed801528181610f780152818161101a015281816110a3015261116001526141396000f3fe6080604052600436106101755760003560e01c80636352211e116100cb57806395d89b411161007f578063c87b56dd11610059578063c87b56dd146103e8578063e985e9c514610408578063f2fde38b1461045157600080fd5b806395d89b4114610393578063a22cb465146103a8578063b88d4fde146103c857600080fd5b8063715018a6116100b0578063715018a61461034b5780638456cb59146103605780638da5cb5b1461037557600080fd5b80636352211e146102fd57806370a082311461031d57600080fd5b806323b872dd1161012d57806342842e0e1161010757806342842e0e14610286578063599f689c146102a65780635c975abb146102de57600080fd5b806323b872dd1461023e578063379607f51461025e5780633f4ba83a1461027157600080fd5b806306fdde031161015e57806306fdde03146101c2578063081812fc146101e4578063095ea7b31461021c57600080fd5b806301ffc9a71461017a578063023245d7146101af575b600080fd5b34801561018657600080fd5b5061019a61019536600461294f565b610471565b60405190151581526020015b60405180910390f35b61019a6101bd366004612987565b61050e565b3480156101ce57600080fd5b506101d7610718565b6040516101a691906131ff565b3480156101f057600080fd5b506102046101ff366004612987565b6107aa565b6040516001600160a01b0390911681526020016101a6565b34801561022857600080fd5b5061023c610237366004612926565b610850565b005b34801561024a57600080fd5b5061023c6102593660046127dc565b610982565b61023c61026c366004612987565b610a09565b34801561027d57600080fd5b5061023c610b87565b34801561029257600080fd5b5061023c6102a13660046127dc565b610beb565b3480156102b257600080fd5b5061019a6102c1366004612987565b6000908152600260205260409020546001600160a01b0316151590565b3480156102ea57600080fd5b50600754600160a01b900460ff1661019a565b34801561030957600080fd5b50610204610318366004612987565b610c06565b34801561032957600080fd5b5061033d610338366004612790565b610c91565b6040519081526020016101a6565b34801561035757600080fd5b5061023c610d2b565b34801561036c57600080fd5b5061023c610d8f565b34801561038157600080fd5b506007546001600160a01b0316610204565b34801561039f57600080fd5b506101d7610df1565b3480156103b457600080fd5b5061023c6103c33660046128ec565b610e00565b3480156103d457600080fd5b5061023c6103e3366004612817565b610e0f565b3480156103f457600080fd5b506101d7610403366004612987565b610e9d565b34801561041457600080fd5b5061019a6104233660046127aa565b6001600160a01b03918216600090815260056020908152604080832093909416825291909152205460ff1690565b34801561045d57600080fd5b5061023c61046c366004612790565b61128f565b60006001600160e01b031982167f80ac58cd0000000000000000000000000000000000000000000000000000000014806104d457506001600160e01b031982167f5b5e139f00000000000000000000000000000000000000000000000000000000145b8061050857507f01ffc9a7000000000000000000000000000000000000000000000000000000006001600160e01b03198316145b92915050565b60006105a082106105665760405162461bcd60e51b815260206004820152601060248201527f546f6b656e20494420696e76616c69640000000000000000000000000000000060448201526064015b60405180910390fd5b3361057083610c06565b6001600160a01b0316146105ec5760405162461bcd60e51b815260206004820152602160248201527f596f7520617265206e6f7420746865206f776e6572206f662074686973204e4660448201527f5400000000000000000000000000000000000000000000000000000000000000606482015260840161055d565b60008281526008602052604090205415801590610619575060008281526008602052604090206001015415155b6106655760405162461bcd60e51b815260206004820152600c60248201527f496e76616c696420757365720000000000000000000000000000000000000000604482015260640161055d565b60008281526008602052604090206001015442116106c55760405162461bcd60e51b815260206004820152601a60248201527f546f6f206561726c7920746f20726563656976652066756e6473000000000000604482015260640161055d565b6000828152600860205260408082208054838255600190910183905590519091339183156108fc0291849190818181858888f1935050505015801561070e573d6000803e3d6000fd5b5060019392505050565b606060008054610727906132c2565b80601f0160208091040260200160405190810160405280929190818152602001828054610753906132c2565b80156107a05780601f10610775576101008083540402835291602001916107a0565b820191906000526020600020905b81548152906001019060200180831161078357829003601f168201915b5050505050905090565b6000818152600260205260408120546001600160a01b03166108345760405162461bcd60e51b815260206004820152602c60248201527f4552433732313a20617070726f76656420717565727920666f72206e6f6e657860448201527f697374656e7420746f6b656e0000000000000000000000000000000000000000606482015260840161055d565b506000908152600460205260409020546001600160a01b031690565b600061085b82610c06565b9050806001600160a01b0316836001600160a01b031614156108e55760405162461bcd60e51b815260206004820152602160248201527f4552433732313a20617070726f76616c20746f2063757272656e74206f776e6560448201527f7200000000000000000000000000000000000000000000000000000000000000606482015260840161055d565b336001600160a01b038216148061090157506109018133610423565b6109735760405162461bcd60e51b815260206004820152603860248201527f4552433732313a20617070726f76652063616c6c6572206973206e6f74206f7760448201527f6e6572206e6f7220617070726f76656420666f7220616c6c0000000000000000606482015260840161055d565b61097d8383611371565b505050565b61098c33826113ec565b6109fe5760405162461bcd60e51b815260206004820152603160248201527f4552433732313a207472616e736665722063616c6c6572206973206e6f74206f60448201527f776e6572206e6f7220617070726f766564000000000000000000000000000000606482015260840161055d565b61097d8383836114f4565b60026006541415610a5c5760405162461bcd60e51b815260206004820152601f60248201527f5265656e7472616e637947756172643a207265656e7472616e742063616c6c00604482015260640161055d565b60026006556105a08110610ab25760405162461bcd60e51b815260206004820152601060248201527f546f6b656e20494420696e76616c696400000000000000000000000000000000604482015260640161055d565b7f0000000000000000000000000000000000000000000000000000000000000000341015610b225760405162461bcd60e51b815260206004820152600f60248201527f4e6f7420656e6f7567682066756e640000000000000000000000000000000000604482015260640161055d565b610b2c33826116da565b6000610b40670de0b6b3a76400003461322a565b610b4d9062015180613260565b610b579042613212565b60408051808201825234815260208082019384526000958652600890529320925183555160019283015550600655565b6007546001600160a01b03163314610be15760405162461bcd60e51b815260206004820181905260248201527f4f776e61626c653a2063616c6c6572206973206e6f7420746865206f776e6572604482015260640161055d565b610be96116f4565b565b61097d83838360405180602001604052806000815250610e0f565b6000818152600260205260408120546001600160a01b0316806105085760405162461bcd60e51b815260206004820152602960248201527f4552433732313a206f776e657220717565727920666f72206e6f6e657869737460448201527f656e7420746f6b656e0000000000000000000000000000000000000000000000606482015260840161055d565b60006001600160a01b038216610d0f5760405162461bcd60e51b815260206004820152602a60248201527f4552433732313a2062616c616e636520717565727920666f7220746865207a6560448201527f726f206164647265737300000000000000000000000000000000000000000000606482015260840161055d565b506001600160a01b031660009081526003602052604090205490565b6007546001600160a01b03163314610d855760405162461bcd60e51b815260206004820181905260248201527f4f776e61626c653a2063616c6c6572206973206e6f7420746865206f776e6572604482015260640161055d565b610be9600061179a565b6007546001600160a01b03163314610de95760405162461bcd60e51b815260206004820181905260248201527f4f776e61626c653a2063616c6c6572206973206e6f7420746865206f776e6572604482015260640161055d565b610be96117f9565b606060018054610727906132c2565b610e0b33838361188e565b5050565b610e1933836113ec565b610e8b5760405162461bcd60e51b815260206004820152603160248201527f4552433732313a207472616e736665722063616c6c6572206973206e6f74206f60448201527f776e6572206e6f7220617070726f766564000000000000000000000000000000606482015260840161055d565b610e978484848461195d565b50505050565b60408051808201825260048152637261726560e01b602080830191909152825180840190935260018352600b60fb1b90830152606091610f057f0000000000000000000000000000000000000000000000000000000000000000678ac7230489e80000613260565b6000858152600860205260409020541015610f73576040518060400160405280600681526020017f636f6d6d6f6e00000000000000000000000000000000000000000000000000008152509150604051806040016040528060018152602001600b60fb1b8152509050611215565b610fa67f00000000000000000000000000000000000000000000000000000000000000006802b5e3af16b1880000613260565b6000858152600860205260409020541015611015576040518060400160405280600881526020017f756e636f6d6d6f6e0000000000000000000000000000000000000000000000008152509150604051806040016040528060028152602001610b0b60f31b8152509050611215565b6110487f000000000000000000000000000000000000000000000000000000000000000068056bc75e2d63100000613260565b600085815260086020526040902054101561109e57604051806040016040528060048152602001637261726560e01b8152509150604051806040016040528060028152602001610b0b60f31b8152509050611215565b6110d17f0000000000000000000000000000000000000000000000000000000000000000683635c9adc5dea00000613260565b600085815260086020526040902054101561115b576040518060400160405280600481526020017f657069630000000000000000000000000000000000000000000000000000000081525091506040518060400160405280600381526020017f58585800000000000000000000000000000000000000000000000000000000008152509050611215565b61118f7f000000000000000000000000000000000000000000000000000000000000000069021e19e0c9bab2400000613260565b6000858152600860205260409020541015611215576040518060400160405280600981526020017f6c6567656e64617279000000000000000000000000000000000000000000000081525091506040518060400160405280600481526020017f585858580000000000000000000000000000000000000000000000000000000081525090505b6000611220856119db565b9050600061126261123087611aad565b61123984611bfb565b868660405160200161124e9493929190612fc6565b604051602081830303815290604052611bfb565b9050806040516020016112759190612f81565b60408051601f198184030181529190529695505050505050565b6007546001600160a01b031633146112e95760405162461bcd60e51b815260206004820181905260248201527f4f776e61626c653a2063616c6c6572206973206e6f7420746865206f776e6572604482015260640161055d565b6001600160a01b0381166113655760405162461bcd60e51b815260206004820152602660248201527f4f776e61626c653a206e6577206f776e657220697320746865207a65726f206160448201527f6464726573730000000000000000000000000000000000000000000000000000606482015260840161055d565b61136e8161179a565b50565b6000818152600460205260409020805473ffffffffffffffffffffffffffffffffffffffff19166001600160a01b03841690811790915581906113b382610c06565b6001600160a01b03167f8c5be1e5ebec7d5bd14f71427d1e84f3dd0314c0f7b2291e5b200ac8c7c3b92560405160405180910390a45050565b6000818152600260205260408120546001600160a01b03166114765760405162461bcd60e51b815260206004820152603660248201527f4552433732314f776e6572436865636b3a206f70657261746f7220717565727960448201527f20666f72206e6f6e6578697374656e7420746f6b656e00000000000000000000606482015260840161055d565b600061148183610c06565b9050806001600160a01b0316846001600160a01b031614806114bc5750836001600160a01b03166114b1846107aa565b6001600160a01b0316145b806114ec57506001600160a01b0380821660009081526005602090815260408083209388168352929052205460ff165b949350505050565b826001600160a01b031661150782610c06565b6001600160a01b0316146115835760405162461bcd60e51b815260206004820152602f60248201527f4552433732314f776e6572436865636b3a207472616e736665722066726f6d2060448201527f696e636f7272656374206f776e65720000000000000000000000000000000000606482015260840161055d565b6001600160a01b0382166115ff5760405162461bcd60e51b815260206004820152602e60248201527f4552433732314f776e6572436865636b3a207472616e7366657220746f20746860448201527f65207a65726f2061646472657373000000000000000000000000000000000000606482015260840161055d565b61160a838383611d5d565b611615600082611371565b6001600160a01b038316600090815260036020526040812080546001929061163e90849061327f565b90915550506001600160a01b038216600090815260036020526040812080546001929061166c908490613212565b9091555050600081815260026020526040808220805473ffffffffffffffffffffffffffffffffffffffff19166001600160a01b0386811691821790925591518493918716917fddf252ad1be2c89b69c2b068fc378daa952ba7f163c4a11628f55a4df523b3ef91a4505050565b610e0b828260405180602001604052806000815250611db7565b600754600160a01b900460ff1661174d5760405162461bcd60e51b815260206004820152601460248201527f5061757361626c653a206e6f7420706175736564000000000000000000000000604482015260640161055d565b6007805460ff60a01b191690557f5db9ee0a495bf2e6ff9c91a7834c1ba4fdd244a5e8aa4e537bd38aeae4b073aa335b6040516001600160a01b03909116815260200160405180910390a1565b600780546001600160a01b0383811673ffffffffffffffffffffffffffffffffffffffff19831681179093556040519116919082907f8be0079c531659141344cd1fd0a4f28419497f9722a3daafe3b4186f6b6457e090600090a35050565b600754600160a01b900460ff16156118535760405162461bcd60e51b815260206004820152601060248201527f5061757361626c653a2070617573656400000000000000000000000000000000604482015260640161055d565b6007805460ff60a01b1916600160a01b1790557f62e78cea01bee320cd4e420270b5ea74000d11b0c9f74754ebdbfc544b05a25861177d3390565b816001600160a01b0316836001600160a01b031614156118f05760405162461bcd60e51b815260206004820152601960248201527f4552433732313a20617070726f766520746f2063616c6c657200000000000000604482015260640161055d565b6001600160a01b03838116600081815260056020908152604080832094871680845294825291829020805460ff191686151590811790915591519182527f17307eab39ab6107e8899845ad3d59bd9653f200f220920489ca2b5937696c31910160405180910390a3505050565b6119688484846114f4565b61197484848484611e35565b610e975760405162461bcd60e51b815260206004820152603260248201527f4552433732313a207472616e7366657220746f206e6f6e20455243373231526560448201527131b2b4bb32b91034b6b83632b6b2b73a32b960711b606482015260840161055d565b60606119e5612756565b6119ee83611f8d565b905060006040518060800160405280611a2b84600060048110611a2157634e487b7160e01b600052603260045260246000fd5b602002015161204b565b8152602001611a408460016020020151612137565b8152602001611a558460026020020151612223565b8152602001611a6a846003602002015161230f565b9052606081015160408083015160208085015185519351959650600095611a949594919201612c2c565b60408051601f1981840301815291905295945050505050565b606081611aed57505060408051808201909152600181527f3000000000000000000000000000000000000000000000000000000000000000602082015290565b8160005b8115611b175780611b01816132fd565b9150611b109050600a8361322a565b9150611af1565b60008167ffffffffffffffff811115611b4057634e487b7160e01b600052604160045260246000fd5b6040519080825280601f01601f191660200182016040528015611b6a576020820181803683370190505b5090505b84156114ec57611b7f60018361327f565b9150611b8c600a86613318565b611b97906030613212565b60f81b818381518110611bba57634e487b7160e01b600052603260045260246000fd5b60200101907effffffffffffffffffffffffffffffffffffffffffffffffffffffffffffff1916908160001a905350611bf4600a8661322a565b9450611b6e565b6060815160001415611c1b57505060408051602081019091526000815290565b60006040518060600160405280604081526020016139bc6040913990506000600384516002611c4a9190613212565b611c54919061322a565b611c5f906004613260565b67ffffffffffffffff811115611c8557634e487b7160e01b600052604160045260246000fd5b6040519080825280601f01601f191660200182016040528015611caf576020820181803683370190505b509050600182016020820185865187015b80821015611d1b576003820191508151603f8160121c168501518453600184019350603f81600c1c168501518453600184019350603f8160061c168501518453600184019350603f8116850151845350600183019250611cc0565b5050600386510660018114611d375760028114611d4a57611d52565b603d6001830353603d6002830353611d52565b603d60018303535b509195945050505050565b600754600160a01b900460ff161561097d5760405162461bcd60e51b815260206004820152601060248201527f5061757361626c653a2070617573656400000000000000000000000000000000604482015260640161055d565b611dc183836123fb565b611dce6000848484611e35565b61097d5760405162461bcd60e51b815260206004820152603260248201527f4552433732313a207472616e7366657220746f206e6f6e20455243373231526560448201527131b2b4bb32b91034b6b83632b6b2b73a32b960711b606482015260840161055d565b60006001600160a01b0384163b15611f8257604051630a85bd0160e11b81526001600160a01b0385169063150b7a0290611e799033908990889088906004016131c3565b602060405180830381600087803b158015611e9357600080fd5b505af1925050508015611ec3575060408051601f3d908101601f19168201909252611ec09181019061296b565b60015b611f68573d808015611ef1576040519150601f19603f3d011682016040523d82523d6000602084013e611ef6565b606091505b508051611f605760405162461bcd60e51b815260206004820152603260248201527f4552433732313a207472616e7366657220746f206e6f6e20455243373231526560448201527131b2b4bb32b91034b6b83632b6b2b73a32b960711b606482015260840161055d565b805181602001fd5b6001600160e01b031916630a85bd0160e11b1490506114ec565b506001949350505050565b611f95612756565b600080611fa0612756565b611fab603c8661322a565b9250600a8360ff161015611fcb576000815260ff83166020820152611fef565b611fd6600a8461323e565b60ff168152611fe6600a8461332c565b60ff1660208201525b611ffa603c86613318565b9150600a8260ff16101561201d576000604082015260ff821660608201526114ec565b612028600a8361323e565b60ff16604082015261203b600a8361332c565b60ff166060820152949350505050565b606060006040518060e001604052806040518060a0016040528060758152602001613f256075913981526020016040518060a001604052806076815260200161408e6076913981526020016040518060a00160405280607a8152602001613421607a913981526020016040518060a00160405280606f815260200161358a606f913981526020016040518060a00160405280607681526020016137666076913981526020016040518060a00160405280607a8152602001613673607a913981526020016040518060a001604052806075815260200161349b607591399052905060606114ec8285612556565b606060006040518060e001604052806040518060a0016040528060798152602001613a6e6079913981526020016040518060a00160405280607a81526020016133a7607a913981526020016040518060a00160405280607a81526020016135f9607a913981526020016040518060a00160405280607281526020016139fc6072913981526020016040518060a00160405280607a8152602001613dc0607a913981526020016040518060a00160405280607a8152602001613510607a913981526020016040518060a0016040528060798152602001613b61607991399052905060606114ec8285612556565b606060006040518060e001604052806040518060a00160405280607981526020016136ed6079913981526020016040518060a00160405280607a81526020016138d0607a913981526020016040518060a00160405280607a81526020016137dc607a913981526020016040518060a0016040528060728152602001613eb36072913981526020016040518060a00160405280607a8152602001613c53607a913981526020016040518060a00160405280607a8152602001613ccd607a913981526020016040518060a0016040528060798152602001613e3a607991399052905060606114ec8285612556565b606060006040518060e001604052806040518060a0016040528060798152602001613d476079913981526020016040518060a00160405280607a8152602001614014607a913981526020016040518060a00160405280607a8152602001613ae7607a913981526020016040518060a001604052806072815260200161394a6072913981526020016040518060a00160405280607a8152602001613856607a913981526020016040518060a00160405280607a8152602001613f9a607a913981526020016040518060a0016040528060798152602001613bda607991399052905060606114ec8285612556565b6001600160a01b0382166124515760405162461bcd60e51b815260206004820181905260248201527f4552433732313a206d696e7420746f20746865207a65726f2061646472657373604482015260640161055d565b6000818152600260205260409020546001600160a01b0316156124b65760405162461bcd60e51b815260206004820152601c60248201527f4552433732313a20746f6b656e20616c7265616479206d696e74656400000000604482015260640161055d565b6124c260008383611d5d565b6001600160a01b03821660009081526003602052604081208054600192906124eb908490613212565b9091555050600081815260026020526040808220805473ffffffffffffffffffffffffffffffffffffffff19166001600160a01b03861690811790915590518392907fddf252ad1be2c89b69c2b068fc378daa952ba7f163c4a11628f55a4df523b3ef908290a45050565b60608060ff83166125aa57835160208501518560025b60209081029190910151608088015160a089015160c08a015160405161259497969501612b1b565b604051602081830303815290604052905061274f565b8260ff16600114156125d05760408085015160a0860151915161259492906020016129e7565b8260ff166002141561260d578351604085015160608601518660045b60200201518760066020020151604051602001612594959493929190612ab0565b8260ff16600314156126315783518460025b602002015160608601518660056125ec565b8260ff166004141561266357602080850151604080870151606088015160a08901519251612594959293919201612a59565b8260ff166005141561267957835184600161261f565b8260ff1660061415612694578351602085015185600361256c565b8260ff16600714156126bd57835160408086015160a08701519151612594939290602001612a16565b8260ff1660081415612700578351602080860151604080880151606089015160808a015160a08b015160c08c015194516125949897949593949293919201612b9a565b8260ff166009141561274f578351602080860151604080880151606089015160a08a015160c08b0151935161273d97969394929391929101612b1b565b60405160208183030381529060405290505b9392505050565b60405180608001604052806004906020820280368337509192915050565b80356001600160a01b038116811461278b57600080fd5b919050565b6000602082840312156127a1578081fd5b61274f82612774565b600080604083850312156127bc578081fd5b6127c583612774565b91506127d360208401612774565b90509250929050565b6000806000606084860312156127f0578081fd5b6127f984612774565b925061280760208501612774565b9150604084013590509250925092565b6000806000806080858703121561282c578081fd5b61283585612774565b935061284360208601612774565b925060408501359150606085013567ffffffffffffffff80821115612866578283fd5b818701915087601f830112612879578283fd5b81358181111561288b5761288b61337a565b604051601f8201601f19908116603f011681019083821181831017156128b3576128b361337a565b816040528281528a60208487010111156128cb578586fd5b82602086016020830137918201602001949094529598949750929550505050565b600080604083850312156128fe578182fd5b61290783612774565b91506020830135801515811461291b578182fd5b809150509250929050565b60008060408385031215612938578182fd5b61294183612774565b946020939093013593505050565b600060208284031215612960578081fd5b813561274f81613390565b60006020828403121561297c578081fd5b815161274f81613390565b600060208284031215612998578081fd5b5035919050565b600081518084526129b7816020860160208601613296565b601f01601f19169290920160200192915050565b600081516129dd818560208601613296565b9290920192915050565b600083516129f9818460208801613296565b835190830190612a0d818360208801613296565b01949350505050565b60008451612a28818460208901613296565b845190830190612a3c818360208901613296565b8451910190612a4f818360208801613296565b0195945050505050565b60008551612a6b818460208a01613296565b855190830190612a7f818360208a01613296565b8551910190612a92818360208901613296565b8451910190612aa5818360208801613296565b019695505050505050565b60008651612ac2818460208b01613296565b865190830190612ad6818360208b01613296565b8651910190612ae9818360208a01613296565b8551910190612afc818360208901613296565b8451910190612b0f818360208801613296565b01979650505050505050565b600087516020612b2e8285838d01613296565b885191840191612b418184848d01613296565b8851920191612b538184848c01613296565b8751920191612b658184848b01613296565b8651920191612b778184848a01613296565b8551920191612b898184848901613296565b919091019998505050505050505050565b600088516020612bad8285838e01613296565b895191840191612bc08184848e01613296565b8951920191612bd28184848d01613296565b8851920191612be48184848c01613296565b8751920191612bf68184848b01613296565b8651920191612c088184848a01613296565b8551920191612c1a8184848901613296565b919091019a9950505050505050505050565b7f3c7376672076696577426f783d2730203020353030203530302720786d6c6e7381527f3d27687474703a2f2f7777772e77332e6f72672f323030302f7376672720786d60208201527f6c6e733a62783d2768747470733a2f2f626f78792d7376672e636f6d273e3c6760408201527f207374726f6b653d2723666666666666272066696c6c3d27236666666666272060608201527f7472616e73666f726d3d276d617472697828342e3833373038322c20302c203060808201527f2c20352e3331303937322c2035392e3231393436372c202d34352e343737313560a08201527f2927203e3c672069643d276d696e75746573273e3c673e00000000000000000060c082015260008551612d488160d7850160208a01613296565b661e17b39f1e339f60c91b60d7918401918201528551612d6f8160de840160208a01613296565b612f75612dcc612dc6612db3612dad60de868801017f203c2f673e3c2f673e3c672069643d27686f75727327203e3c673e00000000008152601b0190565b8a6129cb565b661e17b39f1e339f60c91b815260070190565b876129cb565b7f203c2f673e3c2f673e3c672069643d27646f7473273e3c673e3c636972636c6581527f2063783d273430272063793d2735302720723d273227207374796c653d27706160208201527f696e742d6f726465723a207374726f6b653b207374726f6b653a20726762283060408201527f2c20302c2030293b272f3e203c636972636c652063783d273430272063793d2760608201527f35382720723d273227207374796c653d277061696e742d6f726465723a20737460808201527f726f6b653b207374726f6b653a2072676228302c20302c2030293b272f3e3c2f60a08201527f673e3c2f673e3c2f673e3c74657874207374796c653d2766696c6c3a2072676260c08201527f2835312c2035312c203531293b20666f6e742d66616d696c793a20496d70616360e08201527f743b20666f6e742d73697a653a2033322e3270783b2077686974652d737061636101008201527f653a207072653b2720783d273431392e3439312720793d273439312e313533276101208201527f3e44415920303c2f746578743e3c2f7376673e000000000000000000000000006101408201526101530190565b98975050505050505050565b7f646174613a6170706c69636174696f6e2f6a736f6e3b6261736536342c000000815260008251612fb981601d850160208701613296565b91909101601d0192915050565b7f7b226e616d65223a202254696d65200000000000000000000000000000000000815260008551612ffe81600f850160208a01613296565b7f2200000000000000000000000000000000000000000000000000000000000000600f918401918201527f226465736372697074696f6e223a2022546865206d6f73742076616c7561626c60108201527f65207468696e6720696e2074686520656e7469726520776f726c64222c20226960308201527f6d616765223a2022646174613a696d6167652f7376672b786d6c3b626173653660508201527f342c000000000000000000000000000000000000000000000000000000000000607082015285516130d3816072840160208a01613296565b7f222c20617474726962757465733a5b7b2274726169745f74797065223a225261607292909101918201527f72697479222c2256616c7565223a22000000000000000000000000000000000060928201526131b861318f61318961313a60a18501896129cb565b7f227d2c7b2274726169745f74797065223a2252617269747920416d6f756e742281527f2c2256616c7565223a22000000000000000000000000000000000000000000006020820152602a0190565b866129cb565b7f227d5d7d00000000000000000000000000000000000000000000000000000000815260040190565b979650505050505050565b60006001600160a01b038087168352808616602084015250836040830152608060608301526131f5608083018461299f565b9695505050505050565b60208152600061274f602083018461299f565b600082198211156132255761322561334e565b500190565b60008261323957613239613364565b500490565b600060ff83168061325157613251613364565b8060ff84160491505092915050565b600081600019048311821515161561327a5761327a61334e565b500290565b6000828210156132915761329161334e565b500390565b60005b838110156132b1578181015183820152602001613299565b83811115610e975750506000910152565b600181811c908216806132d657607f821691505b602082108114156132f757634e487b7160e01b600052602260045260246000fd5b50919050565b60006000198214156133115761331161334e565b5060010190565b60008261332757613327613364565b500690565b600060ff83168061333f5761333f613364565b8060ff84160691505092915050565b634e487b7160e01b600052601160045260246000fd5b634e487b7160e01b600052601260045260246000fd5b634e487b7160e01b600052604160045260246000fd5b6001600160e01b03198116811461136e57600080fdfe3c706174682069643d2762322720643d274d32312c34306c332c3376386c2d332c3263302c302d312d312d312d33762d374332302c34312c32312c34302c32312c34307a27207374796c653d277061696e742d6f726465723a207374726f6b653b207374726f6b653a2072676228302c20302c2030293b272f3e3c706174682069643d2761332720643d274d31372c34306c2d332c3376386c332c3263302c302c312d312c312d33762d374331382c34312c31372c34302c31372c34307a27207374796c653d277061696e742d6f726465723a207374726f6b653b207374726f6b653a2072676228302c20302c2030293b272f3e3c706174682069643d2761372720643d274d342c36396c332d3368366c332c3363302c302d312c312d332c31682d3643352c37302c342c36392c342c36397a27207374796c653d277061696e742d6f726465723a207374726f6b653b207374726f6b653a2072676228302c20302c2030293b272f3e3c706174682069643d2762362720643d274d33352c35356c2d332c3276386c332c3363302c302c312d312c312d33762d374333362c35362c33352c35352c33352c35357a27207374796c653d277061696e742d6f726465723a207374726f6b653b207374726f6b653a2072676228302c20302c2030293b272f3e3c706f6c79676f6e2069643d2761342720706f696e74733d27372c35322031332c35322031362c35342031332c353620372c353620342c353427207374796c653d277061696e742d6f726465723a207374726f6b653b207374726f6b653a2072676228302c20302c2030293b272f3e3c706174682069643d2762332720643d274d33352c34306c2d332c3376386c332c3263302c302c312d312c312d33762d374333362c34312c33352c34302c33352c34307a27207374796c653d277061696e742d6f726465723a207374726f6b653b207374726f6b653a2072676228302c20302c2030293b272f3e3c706174682069643d2761362720643d274d31372c35356c2d332c3276386c332c3363302c302c312d312c312d33762d374331382c35362c31372c35352c31372c35357a27207374796c653d277061696e742d6f726465723a207374726f6b653b207374726f6b653a2072676228302c20302c2030293b272f3e3c706174682069643d2763312720643d274d34362c33396c332c3368366c332d3363302c302d312d312d332d31682d364334372c33382c34362c33392c34362c33397a27207374796c653d277061696e742d6f726465723a207374726f6b653b207374726f6b653a2072676228302c20302c2030293b272f3e3c706174682069643d2761352720643d274d332c35356c332c3276386c2d332c3363302c302d312d312d312d33762d3743322c35362c332c35352c332c35357a27207374796c653d277061696e742d6f726465723a207374726f6b653b207374726f6b653a2072676228302c20302c2030293b272f3e3c706174682069643d2763332720643d274d35392c34306c2d332c3376386c332c3263302c302c312d312c312d33762d374336302c34312c35392c34302c35392c34307a27207374796c653d277061696e742d6f726465723a207374726f6b653b207374726f6b653a2072676228302c20302c2030293b272f3e3c706174682069643d2764352720643d274d36332c35356c332c3276386c2d332c3363302c302d312d312d312d33762d374336322c35362c36332c35352c36332c35357a27207374796c653d277061696e742d6f726465723a207374726f6b653b207374726f6b653a2072676228302c20302c2030293b272f3e3c706174682069643d2763322720643d274d34352c34306c332c3376386c2d332c3263302c302d312d312d312d33762d374334342c34312c34352c34302c34352c34307a27207374796c653d277061696e742d6f726465723a207374726f6b653b207374726f6b653a2072676228302c20302c2030293b272f3e3c706f6c79676f6e2069643d2764342720706f696e74733d2736372c35322037332c35322037362c35342037332c35362036372c35362036342c353427207374796c653d277061696e742d6f726465723a207374726f6b653b207374726f6b653a2072676228302c20302c2030293b272f3e4142434445464748494a4b4c4d4e4f505152535455565758595a6162636465666768696a6b6c6d6e6f707172737475767778797a303132333435363738392b2f3c706f6c79676f6e2069643d2762342720706f696e74733d2732352c35322033312c35322033342c35342033312c35362032352c35362032322c353427207374796c653d277061696e742d6f726465723a207374726f6b653b207374726f6b653a2072676228302c20302c2030293b272f3e3c706174682069643d2762312720643d274d32322c33396c332c3368366c332d3363302c302d312d312d332d31682d364332332c33382c32322c33392c32322c33397a27207374796c653d277061696e742d6f726465723a207374726f6b653b207374726f6b653a2072676228302c20302c2030293b272f3e3c706174682069643d2764332720643d274d37372c34306c2d332c3376386c332c3263302c302c312d312c312d33762d374337382c34312c37372c34302c37372c34307a27207374796c653d277061696e742d6f726465723a207374726f6b653b207374726f6b653a2072676228302c20302c2030293b272f3e3c706174682069643d2762372720643d274d32322c36396c332d3368366c332c3363302c302d312c312d332c31682d364332332c37302c32322c36392c32322c36397a27207374796c653d277061696e742d6f726465723a207374726f6b653b207374726f6b653a2072676228302c20302c2030293b272f3e3c706174682069643d2764372720643d274d36342c36396c332d3368366c332c3363302c302d312c312d332c31682d364336352c37302c36342c36392c36342c36397a27207374796c653d277061696e742d6f726465723a207374726f6b653b207374726f6b653a2072676228302c20302c2030293b272f3e3c706174682069643d2763352720643d274d34352c35356c332c3276386c2d332c3363302c302d312d312d312d33762d374334342c35362c34352c35352c34352c35357a27207374796c653d277061696e742d6f726465723a207374726f6b653b207374726f6b653a2072676228302c20302c2030293b272f3e3c706174682069643d2763362720643d274d35392c35356c2d332c3276386c332c3363302c302c312d312c312d33762d374336302c35362c35392c35352c35392c35357a27207374796c653d277061696e742d6f726465723a207374726f6b653b207374726f6b653a2072676228302c20302c2030293b272f3e3c706174682069643d2764312720643d274d36342c33396c332c3368366c332d3363302c302d312d312d332d31682d364336352c33382c36342c33392c36342c33397a27207374796c653d277061696e742d6f726465723a207374726f6b653b207374726f6b653a2072676228302c20302c2030293b272f3e3c706174682069643d2762352720643d274d32312c35356c332c3276386c2d332c3363302c302d312d312d312d33762d374332302c35362c32312c35352c32312c35357a27207374796c653d277061696e742d6f726465723a207374726f6b653b207374726f6b653a2072676228302c20302c2030293b272f3e3c706174682069643d2763372720643d274d34362c36396c332d3368366c332c3363302c302d312c312d332c31682d364334372c37302c34362c36392c34362c36397a27207374796c653d277061696e742d6f726465723a207374726f6b653b207374726f6b653a2072676228302c20302c2030293b272f3e3c706f6c79676f6e2069643d2763342720706f696e74733d2734392c35322035352c35322035382c35342035352c35362034392c35362034362c353427207374796c653d277061696e742d6f726465723a207374726f6b653b207374726f6b653a2072676228302c20302c2030293b272f3e3c706174682069643d2761312720643d274d342c33396c332c3368366c332d3363302c302d312d312d332d31682d3643352c33382c342c33392c342c33397a27207374796c653d277061696e742d6f726465723a207374726f6b653b207374726f6b653a2072676228302c20302c2030293b272f3e3c706174682069643d2764362720643d274d37372c35356c2d332c3276386c332c3363302c302c312d312c312d33762d374337382c35362c37372c35352c37372c35357a27207374796c653d277061696e742d6f726465723a207374726f6b653b207374726f6b653a2072676228302c20302c2030293b272f3e3c706174682069643d2764322720643d274d36332c34306c332c3376386c2d332c3263302c302d312d312d312d33762d374336322c34312c36332c34302c36332c34307a27207374796c653d277061696e742d6f726465723a207374726f6b653b207374726f6b653a2072676228302c20302c2030293b272f3e3c706174682069643d2761322720643d274d332c34306c332c3376386c2d332c3263302c302d312d312d312d33762d3743322c34312c332c34302c332c34307a27207374796c653d277061696e742d6f726465723a207374726f6b653b207374726f6b653a2072676228302c20302c2030293b272f3ea26469706673582212202d25e96f7bc2c4962f6195b81201e0a9f7a12a1660e1d6ba7f2c6dd73722ebf564736f6c63430008040033",
  "linkReferences": {},
  "deployedLinkReferences": {}
}