{
  "_format": "hh-sol-artifact-1",
  "contractName": "TimeNFT",
  "sourceName": "contracts/TimeNFT.sol",
  "abi": [
    {
      "inputs": [
        {
          "internalType": "uint256",
          "name": "_price",
          "type": "uint256"
        }
      ],
      "stateMutability": "nonpayable",
      "type": "constructor"
    },
    {
      "anonymous": false,
      "inputs": [
        {
          "indexed": true,
          "internalType": "address",
          "name": "owner",
          "type": "address"
        },
        {
          "indexed": true,
          "internalType": "address",
          "name": "approved",
          "type": "address"
        },
        {
          "indexed": true,
          "internalType": "uint256",
          "name": "tokenId",
          "type": "uint256"
        }
      ],
      "name": "Approval",
      "type": "event"
    },
    {
      "anonymous": false,
      "inputs": [
        {
          "indexed": true,
          "internalType": "address",
          "name": "owner",
          "type": "address"
        },
        {
          "indexed": true,
          "internalType": "address",
          "name": "operator",
          "type": "address"
        },
        {
          "indexed": false,
          "internalType": "bool",
          "name": "approved",
          "type": "bool"
        }
      ],
      "name": "ApprovalForAll",
      "type": "event"
    },
    {
      "anonymous": false,
      "inputs": [
        {
          "indexed": true,
          "internalType": "address",
          "name": "previousOwner",
          "type": "address"
        },
        {
          "indexed": true,
          "internalType": "address",
          "name": "newOwner",
          "type": "address"
        }
      ],
      "name": "OwnershipTransferred",
      "type": "event"
    },
    {
      "anonymous": false,
      "inputs": [
        {
          "indexed": true,
          "internalType": "address",
          "name": "from",
          "type": "address"
        },
        {
          "indexed": true,
          "internalType": "address",
          "name": "to",
          "type": "address"
        },
        {
          "indexed": true,
          "internalType": "uint256",
          "name": "tokenId",
          "type": "uint256"
        }
      ],
      "name": "Transfer",
      "type": "event"
    },
    {
      "inputs": [
        {
          "internalType": "address",
          "name": "to",
          "type": "address"
        },
        {
          "internalType": "uint256",
          "name": "tokenId",
          "type": "uint256"
        }
      ],
      "name": "approve",
      "outputs": [],
      "stateMutability": "nonpayable",
      "type": "function"
    },
    {
      "inputs": [
        {
          "internalType": "address",
          "name": "owner",
          "type": "address"
        }
      ],
      "name": "balanceOf",
      "outputs": [
        {
          "internalType": "uint256",
          "name": "",
          "type": "uint256"
        }
      ],
      "stateMutability": "view",
      "type": "function"
    },
    {
      "inputs": [
        {
          "internalType": "uint256",
          "name": "tokenId",
          "type": "uint256"
        }
      ],
      "name": "claim",
      "outputs": [],
      "stateMutability": "payable",
      "type": "function"
    },
    {
      "inputs": [
        {
          "internalType": "uint256",
          "name": "tokenId",
          "type": "uint256"
        }
      ],
      "name": "getApproved",
      "outputs": [
        {
          "internalType": "address",
          "name": "",
          "type": "address"
        }
      ],
      "stateMutability": "view",
      "type": "function"
    },
    {
      "inputs": [
        {
          "internalType": "address",
          "name": "owner",
          "type": "address"
        },
        {
          "internalType": "address",
          "name": "operator",
          "type": "address"
        }
      ],
      "name": "isApprovedForAll",
      "outputs": [
        {
          "internalType": "bool",
          "name": "",
          "type": "bool"
        }
      ],
      "stateMutability": "view",
      "type": "function"
    },
    {
      "inputs": [
        {
          "internalType": "uint256",
          "name": "_id",
          "type": "uint256"
        }
      ],
      "name": "isOwned",
      "outputs": [
        {
          "internalType": "bool",
          "name": "",
          "type": "bool"
        }
      ],
      "stateMutability": "view",
      "type": "function"
    },
    {
      "inputs": [],
      "name": "name",
      "outputs": [
        {
          "internalType": "string",
          "name": "",
          "type": "string"
        }
      ],
      "stateMutability": "view",
      "type": "function"
    },
    {
      "inputs": [],
      "name": "owner",
      "outputs": [
        {
          "internalType": "address",
          "name": "",
          "type": "address"
        }
      ],
      "stateMutability": "view",
      "type": "function"
    },
    {
      "inputs": [
        {
          "internalType": "uint256",
          "name": "tokenId",
          "type": "uint256"
        }
      ],
      "name": "ownerOf",
      "outputs": [
        {
          "internalType": "address",
          "name": "",
          "type": "address"
        }
      ],
      "stateMutability": "view",
      "type": "function"
    },
    {
      "inputs": [],
      "name": "renounceOwnership",
      "outputs": [],
      "stateMutability": "nonpayable",
      "type": "function"
    },
    {
      "inputs": [
        {
          "internalType": "address",
          "name": "from",
          "type": "address"
        },
        {
          "internalType": "address",
          "name": "to",
          "type": "address"
        },
        {
          "internalType": "uint256",
          "name": "tokenId",
          "type": "uint256"
        }
      ],
      "name": "safeTransferFrom",
      "outputs": [],
      "stateMutability": "nonpayable",
      "type": "function"
    },
    {
      "inputs": [
        {
          "internalType": "address",
          "name": "from",
          "type": "address"
        },
        {
          "internalType": "address",
          "name": "to",
          "type": "address"
        },
        {
          "internalType": "uint256",
          "name": "tokenId",
          "type": "uint256"
        },
        {
          "internalType": "bytes",
          "name": "_data",
          "type": "bytes"
        }
      ],
      "name": "safeTransferFrom",
      "outputs": [],
      "stateMutability": "nonpayable",
      "type": "function"
    },
    {
      "inputs": [
        {
          "internalType": "address",
          "name": "operator",
          "type": "address"
        },
        {
          "internalType": "bool",
          "name": "approved",
          "type": "bool"
        }
      ],
      "name": "setApprovalForAll",
      "outputs": [],
      "stateMutability": "nonpayable",
      "type": "function"
    },
    {
      "inputs": [
        {
          "internalType": "bytes4",
          "name": "interfaceId",
          "type": "bytes4"
        }
      ],
      "name": "supportsInterface",
      "outputs": [
        {
          "internalType": "bool",
          "name": "",
          "type": "bool"
        }
      ],
      "stateMutability": "view",
      "type": "function"
    },
    {
      "inputs": [],
      "name": "symbol",
      "outputs": [
        {
          "internalType": "string",
          "name": "",
          "type": "string"
        }
      ],
      "stateMutability": "view",
      "type": "function"
    },
    {
      "inputs": [
        {
          "internalType": "uint256",
          "name": "tokenId",
          "type": "uint256"
        }
      ],
      "name": "tokenURI",
      "outputs": [
        {
          "internalType": "string",
          "name": "",
          "type": "string"
        }
      ],
      "stateMutability": "pure",
      "type": "function"
    },
    {
      "inputs": [
        {
          "internalType": "address",
          "name": "from",
          "type": "address"
        },
        {
          "internalType": "address",
          "name": "to",
          "type": "address"
        },
        {
          "internalType": "uint256",
          "name": "tokenId",
          "type": "uint256"
        }
      ],
      "name": "transferFrom",
      "outputs": [],
      "stateMutability": "nonpayable",
      "type": "function"
    },
    {
      "inputs": [
        {
          "internalType": "address",
          "name": "newOwner",
          "type": "address"
        }
      ],
      "name": "transferOwnership",
      "outputs": [],
      "stateMutability": "nonpayable",
      "type": "function"
    }
  ],
  "bytecode": "0x60a06040523480156200001157600080fd5b5060405162006133380380620061338339818101604052810190620000379190620002a3565b6040518060400160405280600881526020017f446179205a45524f0000000000000000000000000000000000000000000000008152506040518060400160405280600481526020017f54494d45000000000000000000000000000000000000000000000000000000008152508160009080519060200190620000bb929190620001dc565b508060019080519060200190620000d4929190620001dc565b5050506001600681905550620000ff620000f36200010e60201b60201c565b6200011660201b60201c565b80608081815250505062000358565b600033905090565b6000600760009054906101000a900473ffffffffffffffffffffffffffffffffffffffff16905081600760006101000a81548173ffffffffffffffffffffffffffffffffffffffff021916908373ffffffffffffffffffffffffffffffffffffffff1602179055508173ffffffffffffffffffffffffffffffffffffffff168173ffffffffffffffffffffffffffffffffffffffff167f8be0079c531659141344cd1fd0a4f28419497f9722a3daafe3b4186f6b6457e060405160405180910390a35050565b828054620001ea90620002d9565b90600052602060002090601f0160209004810192826200020e57600085556200025a565b82601f106200022957805160ff19168380011785556200025a565b828001600101855582156200025a579182015b82811115620002595782518255916020019190600101906200023c565b5b5090506200026991906200026d565b5090565b5b80821115620002885760008160009055506001016200026e565b5090565b6000815190506200029d816200033e565b92915050565b600060208284031215620002b657600080fd5b6000620002c6848285016200028c565b91505092915050565b6000819050919050565b60006002820490506001821680620002f257607f821691505b602082108114156200030957620003086200030f565b5b50919050565b7f4e487b7100000000000000000000000000000000000000000000000000000000600052602260045260246000fd5b6200034981620002cf565b81146200035557600080fd5b50565b608051615dbf6200037460003960006108750152615dbf6000f3fe6080604052600436106101095760003560e01c806370a0823111610095578063a22cb46511610064578063a22cb4651461036e578063b88d4fde14610397578063c87b56dd146103c0578063e985e9c5146103fd578063f2fde38b1461043a57610109565b806370a08231146102c4578063715018a6146103015780638da5cb5b1461031857806395d89b411461034357610109565b806323b872dd116100dc57806323b872dd146101dc578063379607f51461020557806342842e0e14610221578063599f689c1461024a5780636352211e1461028757610109565b806301ffc9a71461010e57806306fdde031461014b578063081812fc14610176578063095ea7b3146101b3575b600080fd5b34801561011a57600080fd5b506101356004803603810190610130919061378d565b610463565b6040516101429190613fa2565b60405180910390f35b34801561015757600080fd5b50610160610545565b60405161016d9190613fbd565b60405180910390f35b34801561018257600080fd5b5061019d600480360381019061019891906137df565b6105d7565b6040516101aa9190613f3b565b60405180910390f35b3480156101bf57600080fd5b506101da60048036038101906101d59190613751565b61065c565b005b3480156101e857600080fd5b5061020360048036038101906101fe919061364b565b610774565b005b61021f600480360381019061021a91906137df565b6107d4565b005b34801561022d57600080fd5b506102486004803603810190610243919061364b565b6108f2565b005b34801561025657600080fd5b50610271600480360381019061026c91906137df565b610912565b60405161027e9190613fa2565b60405180910390f35b34801561029357600080fd5b506102ae60048036038101906102a991906137df565b61097e565b6040516102bb9190613f3b565b60405180910390f35b3480156102d057600080fd5b506102eb60048036038101906102e691906135e6565b610a30565b6040516102f8919061421f565b60405180910390f35b34801561030d57600080fd5b50610316610ae8565b005b34801561032457600080fd5b5061032d610b70565b60405161033a9190613f3b565b60405180910390f35b34801561034f57600080fd5b50610358610b9a565b6040516103659190613fbd565b60405180910390f35b34801561037a57600080fd5b5061039560048036038101906103909190613715565b610c2c565b005b3480156103a357600080fd5b506103be60048036038101906103b9919061369a565b610c42565b005b3480156103cc57600080fd5b506103e760048036038101906103e291906137df565b610ca4565b6040516103f49190613fbd565b60405180910390f35b34801561040957600080fd5b50610424600480360381019061041f919061360f565b610d1d565b6040516104319190613fa2565b60405180910390f35b34801561044657600080fd5b50610461600480360381019061045c91906135e6565b610db1565b005b60007f80ac58cd000000000000000000000000000000000000000000000000000000007bffffffffffffffffffffffffffffffffffffffffffffffffffffffff1916827bffffffffffffffffffffffffffffffffffffffffffffffffffffffff1916148061052e57507f5b5e139f000000000000000000000000000000000000000000000000000000007bffffffffffffffffffffffffffffffffffffffffffffffffffffffff1916827bffffffffffffffffffffffffffffffffffffffffffffffffffffffff1916145b8061053e575061053d82610ea9565b5b9050919050565b606060008054610554906144dc565b80601f0160208091040260200160405190810160405280929190818152602001828054610580906144dc565b80156105cd5780601f106105a2576101008083540402835291602001916105cd565b820191906000526020600020905b8154815290600101906020018083116105b057829003601f168201915b5050505050905090565b60006105e282610f13565b610621576040517f08c379a00000000000000000000000000000000000000000000000000000000081526004016106189061413f565b60405180910390fd5b6004600083815260200190815260200160002060009054906101000a900473ffffffffffffffffffffffffffffffffffffffff169050919050565b60006106678261097e565b90508073ffffffffffffffffffffffffffffffffffffffff168373ffffffffffffffffffffffffffffffffffffffff1614156106d8576040517f08c379a00000000000000000000000000000000000000000000000000000000081526004016106cf906141bf565b60405180910390fd5b8073ffffffffffffffffffffffffffffffffffffffff166106f7610f7f565b73ffffffffffffffffffffffffffffffffffffffff161480610726575061072581610720610f7f565b610d1d565b5b610765576040517f08c379a000000000000000000000000000000000000000000000000000000000815260040161075c906140bf565b60405180910390fd5b61076f8383610f87565b505050565b61078561077f610f7f565b82611040565b6107c4576040517f08c379a00000000000000000000000000000000000000000000000000000000081526004016107bb906141df565b60405180910390fd5b6107cf83838361111e565b505050565b6002600654141561081a576040517f08c379a0000000000000000000000000000000000000000000000000000000008152600401610811906141ff565b60405180910390fd5b60026006819055506000811015801561083457506105a081105b610873576040517f08c379a000000000000000000000000000000000000000000000000000000000815260040161086a9061417f565b60405180910390fd5b7f00000000000000000000000000000000000000000000000000000000000000003410156108d6576040517f08c379a00000000000000000000000000000000000000000000000000000000081526004016108cd9061407f565b60405180910390fd5b6108e76108e1610f7f565b82611385565b600160068190555050565b61090d83838360405180602001604052806000815250610c42565b505050565b60008073ffffffffffffffffffffffffffffffffffffffff166002600084815260200190815260200160002060009054906101000a900473ffffffffffffffffffffffffffffffffffffffff1673ffffffffffffffffffffffffffffffffffffffff1614159050919050565b6000806002600084815260200190815260200160002060009054906101000a900473ffffffffffffffffffffffffffffffffffffffff169050600073ffffffffffffffffffffffffffffffffffffffff168173ffffffffffffffffffffffffffffffffffffffff161415610a27576040517f08c379a0000000000000000000000000000000000000000000000000000000008152600401610a1e906140ff565b60405180910390fd5b80915050919050565b60008073ffffffffffffffffffffffffffffffffffffffff168273ffffffffffffffffffffffffffffffffffffffff161415610aa1576040517f08c379a0000000000000000000000000000000000000000000000000000000008152600401610a98906140df565b60405180910390fd5b600360008373ffffffffffffffffffffffffffffffffffffffff1673ffffffffffffffffffffffffffffffffffffffff168152602001908152602001600020549050919050565b610af0610f7f565b73ffffffffffffffffffffffffffffffffffffffff16610b0e610b70565b73ffffffffffffffffffffffffffffffffffffffff1614610b64576040517f08c379a0000000000000000000000000000000000000000000000000000000008152600401610b5b9061415f565b60405180910390fd5b610b6e60006113a3565b565b6000600760009054906101000a900473ffffffffffffffffffffffffffffffffffffffff16905090565b606060018054610ba9906144dc565b80601f0160208091040260200160405190810160405280929190818152602001828054610bd5906144dc565b8015610c225780601f10610bf757610100808354040283529160200191610c22565b820191906000526020600020905b815481529060010190602001808311610c0557829003601f168201915b5050505050905090565b610c3e610c37610f7f565b8383611469565b5050565b610c53610c4d610f7f565b83611040565b610c92576040517f08c379a0000000000000000000000000000000000000000000000000000000008152600401610c89906141df565b60405180910390fd5b610c9e848484846115d6565b50505050565b60606000610cb183611632565b90506000610cef610cc1856118b1565b610cca84611a5e565b604051602001610cdb929190613ee0565b604051602081830303815290604052611a5e565b905080604051602001610d029190613ebe565b60405160208183030381529060405291508192505050919050565b6000600560008473ffffffffffffffffffffffffffffffffffffffff1673ffffffffffffffffffffffffffffffffffffffff16815260200190815260200160002060008373ffffffffffffffffffffffffffffffffffffffff1673ffffffffffffffffffffffffffffffffffffffff16815260200190815260200160002060009054906101000a900460ff16905092915050565b610db9610f7f565b73ffffffffffffffffffffffffffffffffffffffff16610dd7610b70565b73ffffffffffffffffffffffffffffffffffffffff1614610e2d576040517f08c379a0000000000000000000000000000000000000000000000000000000008152600401610e249061415f565b60405180910390fd5b600073ffffffffffffffffffffffffffffffffffffffff168173ffffffffffffffffffffffffffffffffffffffff161415610e9d576040517f08c379a0000000000000000000000000000000000000000000000000000000008152600401610e9490613fff565b60405180910390fd5b610ea6816113a3565b50565b60007f01ffc9a7000000000000000000000000000000000000000000000000000000007bffffffffffffffffffffffffffffffffffffffffffffffffffffffff1916827bffffffffffffffffffffffffffffffffffffffffffffffffffffffff1916149050919050565b60008073ffffffffffffffffffffffffffffffffffffffff166002600084815260200190815260200160002060009054906101000a900473ffffffffffffffffffffffffffffffffffffffff1673ffffffffffffffffffffffffffffffffffffffff1614159050919050565b600033905090565b816004600083815260200190815260200160002060006101000a81548173ffffffffffffffffffffffffffffffffffffffff021916908373ffffffffffffffffffffffffffffffffffffffff160217905550808273ffffffffffffffffffffffffffffffffffffffff16610ffa8361097e565b73ffffffffffffffffffffffffffffffffffffffff167f8c5be1e5ebec7d5bd14f71427d1e84f3dd0314c0f7b2291e5b200ac8c7c3b92560405160405180910390a45050565b600061104b82610f13565b61108a576040517f08c379a00000000000000000000000000000000000000000000000000000000081526004016110819061403f565b60405180910390fd5b60006110958361097e565b90508073ffffffffffffffffffffffffffffffffffffffff168473ffffffffffffffffffffffffffffffffffffffff16148061110457508373ffffffffffffffffffffffffffffffffffffffff166110ec846105d7565b73ffffffffffffffffffffffffffffffffffffffff16145b8061111557506111148185610d1d565b5b91505092915050565b8273ffffffffffffffffffffffffffffffffffffffff1661113e8261097e565b73ffffffffffffffffffffffffffffffffffffffff1614611194576040517f08c379a000000000000000000000000000000000000000000000000000000000815260040161118b9061419f565b60405180910390fd5b600073ffffffffffffffffffffffffffffffffffffffff168273ffffffffffffffffffffffffffffffffffffffff161415611204576040517f08c379a00000000000000000000000000000000000000000000000000000000081526004016111fb9061405f565b60405180910390fd5b61120f838383611be8565b61121a600082610f87565b6001600360008573ffffffffffffffffffffffffffffffffffffffff1673ffffffffffffffffffffffffffffffffffffffff168152602001908152602001600020600082825461126a91906143e5565b925050819055506001600360008473ffffffffffffffffffffffffffffffffffffffff1673ffffffffffffffffffffffffffffffffffffffff16815260200190815260200160002060008282546112c191906142d3565b92505081905550816002600083815260200190815260200160002060006101000a81548173ffffffffffffffffffffffffffffffffffffffff021916908373ffffffffffffffffffffffffffffffffffffffff160217905550808273ffffffffffffffffffffffffffffffffffffffff168473ffffffffffffffffffffffffffffffffffffffff167fddf252ad1be2c89b69c2b068fc378daa952ba7f163c4a11628f55a4df523b3ef60405160405180910390a4611380838383611bed565b505050565b61139f828260405180602001604052806000815250611bf2565b5050565b6000600760009054906101000a900473ffffffffffffffffffffffffffffffffffffffff16905081600760006101000a81548173ffffffffffffffffffffffffffffffffffffffff021916908373ffffffffffffffffffffffffffffffffffffffff1602179055508173ffffffffffffffffffffffffffffffffffffffff168173ffffffffffffffffffffffffffffffffffffffff167f8be0079c531659141344cd1fd0a4f28419497f9722a3daafe3b4186f6b6457e060405160405180910390a35050565b8173ffffffffffffffffffffffffffffffffffffffff168373ffffffffffffffffffffffffffffffffffffffff1614156114d8576040517f08c379a00000000000000000000000000000000000000000000000000000000081526004016114cf9061409f565b60405180910390fd5b80600560008573ffffffffffffffffffffffffffffffffffffffff1673ffffffffffffffffffffffffffffffffffffffff16815260200190815260200160002060008473ffffffffffffffffffffffffffffffffffffffff1673ffffffffffffffffffffffffffffffffffffffff16815260200190815260200160002060006101000a81548160ff0219169083151502179055508173ffffffffffffffffffffffffffffffffffffffff168373ffffffffffffffffffffffffffffffffffffffff167f17307eab39ab6107e8899845ad3d59bd9653f200f220920489ca2b5937696c31836040516115c99190613fa2565b60405180910390a3505050565b6115e184848461111e565b6115ed84848484611c4d565b61162c576040517f08c379a000000000000000000000000000000000000000000000000000000000815260040161162390613fdf565b60405180910390fd5b50505050565b606061163c6134f3565b61164583611de4565b90506000604051806080016040528061169b84600060048110611691577f4e487b7100000000000000000000000000000000000000000000000000000000600052603260045260246000fd5b60200201516120d6565b81526020016116e7846001600481106116dd577f4e487b7100000000000000000000000000000000000000000000000000000000600052603260045260246000fd5b60200201516121cf565b815260200161173384600260048110611729577f4e487b7100000000000000000000000000000000000000000000000000000000600052603260045260246000fd5b60200201516122c8565b815260200161177f84600360048110611775577f4e487b7100000000000000000000000000000000000000000000000000000000600052603260045260246000fd5b60200201516123c1565b81525090506000816003600481106117c0577f4e487b7100000000000000000000000000000000000000000000000000000000600052603260045260246000fd5b6020020151826002600481106117ff577f4e487b7100000000000000000000000000000000000000000000000000000000600052603260045260246000fd5b60200201518360016004811061183e577f4e487b7100000000000000000000000000000000000000000000000000000000600052603260045260246000fd5b60200201518460006004811061187d577f4e487b7100000000000000000000000000000000000000000000000000000000600052603260045260246000fd5b60200201516040516020016118959493929190613e49565b6040516020818303038152906040529050809350505050919050565b606060008214156118f9576040518060400160405280600181526020017f30000000000000000000000000000000000000000000000000000000000000008152509050611a59565b600082905060005b6000821461192b5780806119149061453f565b915050600a826119249190614329565b9150611901565b60008167ffffffffffffffff81111561196d577f4e487b7100000000000000000000000000000000000000000000000000000000600052604160045260246000fd5b6040519080825280601f01601f19166020018201604052801561199f5781602001600182028036833780820191505090505b5090505b60008514611a52576001826119b891906143e5565b9150600a856119c79190614588565b60306119d391906142d3565b60f81b818381518110611a0f577f4e487b7100000000000000000000000000000000000000000000000000000000600052603260045260246000fd5b60200101907effffffffffffffffffffffffffffffffffffffffffffffffffffffffffffff1916908160001a905350600a85611a4b9190614329565b94506119a3565b8093505050505b919050565b6060600082511415611a8157604051806020016040528060008152509050611be3565b60006040518060600160405280604081526020016156426040913990506000600360028551611ab091906142d3565b611aba9190614329565b6004611ac6919061438b565b67ffffffffffffffff811115611b05577f4e487b7100000000000000000000000000000000000000000000000000000000600052604160045260246000fd5b6040519080825280601f01601f191660200182016040528015611b375781602001600182028036833780820191505090505b509050600182016020820185865187015b80821015611ba3576003820191508151603f8160121c168501518453600184019350603f81600c1c168501518453600184019350603f8160061c168501518453600184019350603f8116850151845360018401935050611b48565b5050600386510660018114611bbf5760028114611bd257611bda565b603d6001830353603d6002830353611bda565b603d60018303535b50505080925050505b919050565b505050565b505050565b611bfc83836124ba565b611c096000848484611c4d565b611c48576040517f08c379a0000000000000000000000000000000000000000000000000000000008152600401611c3f90613fdf565b60405180910390fd5b505050565b6000611c6e8473ffffffffffffffffffffffffffffffffffffffff16612694565b15611dd7578373ffffffffffffffffffffffffffffffffffffffff1663150b7a02611c97610f7f565b8786866040518563ffffffff1660e01b8152600401611cb99493929190613f56565b602060405180830381600087803b158015611cd357600080fd5b505af1925050508015611d0457506040513d601f19601f82011682018060405250810190611d0191906137b6565b60015b611d87573d8060008114611d34576040519150601f19603f3d011682016040523d82523d6000602084013e611d39565b606091505b50600081511415611d7f576040517f08c379a0000000000000000000000000000000000000000000000000000000008152600401611d7690613fdf565b60405180910390fd5b805181602001fd5b63150b7a0260e01b7bffffffffffffffffffffffffffffffffffffffffffffffffffffffff1916817bffffffffffffffffffffffffffffffffffffffffffffffffffffffff191614915050611ddc565b600190505b949350505050565b611dec6134f3565b600080611df76134f3565b603c85611e049190614329565b9250600a8360ff161015611eb057600081600060048110611e4e577f4e487b7100000000000000000000000000000000000000000000000000000000600052603260045260246000fd5b602002019060ff16908160ff16815250508281600160048110611e9a577f4e487b7100000000000000000000000000000000000000000000000000000000600052603260045260246000fd5b602002019060ff16908160ff1681525050611f61565b600a83611ebd919061435a565b81600060048110611ef7577f4e487b7100000000000000000000000000000000000000000000000000000000600052603260045260246000fd5b602002019060ff16908160ff1681525050600a83611f1591906145b9565b81600160048110611f4f577f4e487b7100000000000000000000000000000000000000000000000000000000600052603260045260246000fd5b602002019060ff16908160ff16815250505b603c85611f6e9190614588565b9150600a8260ff16101561201a57600081600260048110611fb8577f4e487b7100000000000000000000000000000000000000000000000000000000600052603260045260246000fd5b602002019060ff16908160ff16815250508181600360048110612004577f4e487b7100000000000000000000000000000000000000000000000000000000600052603260045260246000fd5b602002019060ff16908160ff16815250506120cb565b600a82612027919061435a565b81600260048110612061577f4e487b7100000000000000000000000000000000000000000000000000000000600052603260045260246000fd5b602002019060ff16908160ff1681525050600a8261207f91906145b9565b816003600481106120b9577f4e487b7100000000000000000000000000000000000000000000000000000000600052603260045260246000fd5b602002019060ff16908160ff16815250505b809350505050919050565b606060006040518060e001604052806040518060a0016040528060758152602001615bab6075913981526020016040518060a0016040528060768152602001615d146076913981526020016040518060a00160405280607a81526020016150a7607a913981526020016040518060a00160405280606f8152602001615210606f913981526020016040518060a00160405280607681526020016153ec6076913981526020016040518060a00160405280607a81526020016152f9607a913981526020016040518060a001604052806075815260200161512160759139815250905060606121c382856126b7565b90508092505050919050565b606060006040518060e001604052806040518060a00160405280607981526020016156f46079913981526020016040518060a00160405280607a815260200161502d607a913981526020016040518060a00160405280607a815260200161527f607a913981526020016040518060a00160405280607281526020016156826072913981526020016040518060a00160405280607a8152602001615a46607a913981526020016040518060a00160405280607a8152602001615196607a913981526020016040518060a00160405280607981526020016157e760799139815250905060606122bc82856126b7565b90508092505050919050565b606060006040518060e001604052806040518060a00160405280607981526020016153736079913981526020016040518060a00160405280607a8152602001615556607a913981526020016040518060a00160405280607a8152602001615462607a913981526020016040518060a0016040528060728152602001615b396072913981526020016040518060a00160405280607a81526020016158d9607a913981526020016040518060a00160405280607a8152602001615953607a913981526020016040518060a0016040528060798152602001615ac060799139815250905060606123b582856126b7565b90508092505050919050565b606060006040518060e001604052806040518060a00160405280607981526020016159cd6079913981526020016040518060a00160405280607a8152602001615c9a607a913981526020016040518060a00160405280607a815260200161576d607a913981526020016040518060a00160405280607281526020016155d06072913981526020016040518060a00160405280607a81526020016154dc607a913981526020016040518060a00160405280607a8152602001615c20607a913981526020016040518060a001604052806079815260200161586060799139815250905060606124ae82856126b7565b90508092505050919050565b600073ffffffffffffffffffffffffffffffffffffffff168273ffffffffffffffffffffffffffffffffffffffff16141561252a576040517f08c379a00000000000000000000000000000000000000000000000000000000081526004016125219061411f565b60405180910390fd5b61253381610f13565b15612573576040517f08c379a000000000000000000000000000000000000000000000000000000000815260040161256a9061401f565b60405180910390fd5b61257f60008383611be8565b6001600360008473ffffffffffffffffffffffffffffffffffffffff1673ffffffffffffffffffffffffffffffffffffffff16815260200190815260200160002060008282546125cf91906142d3565b92505081905550816002600083815260200190815260200160002060006101000a81548173ffffffffffffffffffffffffffffffffffffffff021916908373ffffffffffffffffffffffffffffffffffffffff160217905550808273ffffffffffffffffffffffffffffffffffffffff16600073ffffffffffffffffffffffffffffffffffffffff167fddf252ad1be2c89b69c2b068fc378daa952ba7f163c4a11628f55a4df523b3ef60405160405180910390a461269060008383611bed565b5050565b6000808273ffffffffffffffffffffffffffffffffffffffff163b119050919050565b60608060008360ff16141561286b5783600060078110612700577f4e487b7100000000000000000000000000000000000000000000000000000000600052603260045260246000fd5b60200201518460016007811061273f577f4e487b7100000000000000000000000000000000000000000000000000000000600052603260045260246000fd5b60200201518560026007811061277e577f4e487b7100000000000000000000000000000000000000000000000000000000600052603260045260246000fd5b6020020151866004600781106127bd577f4e487b7100000000000000000000000000000000000000000000000000000000600052603260045260246000fd5b6020020151876005600781106127fc577f4e487b7100000000000000000000000000000000000000000000000000000000600052603260045260246000fd5b60200201518860066007811061283b577f4e487b7100000000000000000000000000000000000000000000000000000000600052603260045260246000fd5b602002015160405160200161285596959493929190613d8c565b60405160208183030381529060405290506134e9565b60018360ff16141561291c57836002600781106128b1577f4e487b7100000000000000000000000000000000000000000000000000000000600052603260045260246000fd5b6020020151846005600781106128f0577f4e487b7100000000000000000000000000000000000000000000000000000000600052603260045260246000fd5b6020020151604051602001612906929190613cae565b60405160208183030381529060405290506134e8565b60028360ff161415612a8d5783600060078110612962577f4e487b7100000000000000000000000000000000000000000000000000000000600052603260045260246000fd5b6020020151846002600781106129a1577f4e487b7100000000000000000000000000000000000000000000000000000000600052603260045260246000fd5b6020020151856003600781106129e0577f4e487b7100000000000000000000000000000000000000000000000000000000600052603260045260246000fd5b602002015186600460078110612a1f577f4e487b7100000000000000000000000000000000000000000000000000000000600052603260045260246000fd5b602002015187600660078110612a5e577f4e487b7100000000000000000000000000000000000000000000000000000000600052603260045260246000fd5b6020020151604051602001612a77959493929190613d41565b60405160208183030381529060405290506134e7565b60038360ff161415612bfe5783600060078110612ad3577f4e487b7100000000000000000000000000000000000000000000000000000000600052603260045260246000fd5b602002015184600260078110612b12577f4e487b7100000000000000000000000000000000000000000000000000000000600052603260045260246000fd5b602002015185600360078110612b51577f4e487b7100000000000000000000000000000000000000000000000000000000600052603260045260246000fd5b602002015186600560078110612b90577f4e487b7100000000000000000000000000000000000000000000000000000000600052603260045260246000fd5b602002015187600660078110612bcf577f4e487b7100000000000000000000000000000000000000000000000000000000600052603260045260246000fd5b6020020151604051602001612be8959493929190613d41565b60405160208183030381529060405290506134e6565b60048360ff161415612d2f5783600160078110612c44577f4e487b7100000000000000000000000000000000000000000000000000000000600052603260045260246000fd5b602002015184600260078110612c83577f4e487b7100000000000000000000000000000000000000000000000000000000600052603260045260246000fd5b602002015185600360078110612cc2577f4e487b7100000000000000000000000000000000000000000000000000000000600052603260045260246000fd5b602002015186600560078110612d01577f4e487b7100000000000000000000000000000000000000000000000000000000600052603260045260246000fd5b6020020151604051602001612d199493929190613d03565b60405160208183030381529060405290506134e5565b60058360ff161415612ea05783600060078110612d75577f4e487b7100000000000000000000000000000000000000000000000000000000600052603260045260246000fd5b602002015184600160078110612db4577f4e487b7100000000000000000000000000000000000000000000000000000000600052603260045260246000fd5b602002015185600360078110612df3577f4e487b7100000000000000000000000000000000000000000000000000000000600052603260045260246000fd5b602002015186600560078110612e32577f4e487b7100000000000000000000000000000000000000000000000000000000600052603260045260246000fd5b602002015187600660078110612e71577f4e487b7100000000000000000000000000000000000000000000000000000000600052603260045260246000fd5b6020020151604051602001612e8a959493929190613d41565b60405160208183030381529060405290506134e4565b60068360ff1614156130515783600060078110612ee6577f4e487b7100000000000000000000000000000000000000000000000000000000600052603260045260246000fd5b602002015184600160078110612f25577f4e487b7100000000000000000000000000000000000000000000000000000000600052603260045260246000fd5b602002015185600360078110612f64577f4e487b7100000000000000000000000000000000000000000000000000000000600052603260045260246000fd5b602002015186600460078110612fa3577f4e487b7100000000000000000000000000000000000000000000000000000000600052603260045260246000fd5b602002015187600560078110612fe2577f4e487b7100000000000000000000000000000000000000000000000000000000600052603260045260246000fd5b602002015188600660078110613021577f4e487b7100000000000000000000000000000000000000000000000000000000600052603260045260246000fd5b602002015160405160200161303b96959493929190613d8c565b60405160208183030381529060405290506134e3565b60078360ff1614156131425783600060078110613097577f4e487b7100000000000000000000000000000000000000000000000000000000600052603260045260246000fd5b6020020151846002600781106130d6577f4e487b7100000000000000000000000000000000000000000000000000000000600052603260045260246000fd5b602002015185600560078110613115577f4e487b7100000000000000000000000000000000000000000000000000000000600052603260045260246000fd5b602002015160405160200161312c93929190613cd2565b60405160208183030381529060405290506134e2565b60088360ff1614156133335783600060078110613188577f4e487b7100000000000000000000000000000000000000000000000000000000600052603260045260246000fd5b6020020151846001600781106131c7577f4e487b7100000000000000000000000000000000000000000000000000000000600052603260045260246000fd5b602002015185600260078110613206577f4e487b7100000000000000000000000000000000000000000000000000000000600052603260045260246000fd5b602002015186600360078110613245577f4e487b7100000000000000000000000000000000000000000000000000000000600052603260045260246000fd5b602002015187600460078110613284577f4e487b7100000000000000000000000000000000000000000000000000000000600052603260045260246000fd5b6020020151886005600781106132c3577f4e487b7100000000000000000000000000000000000000000000000000000000600052603260045260246000fd5b602002015189600660078110613302577f4e487b7100000000000000000000000000000000000000000000000000000000600052603260045260246000fd5b602002015160405160200161331d9796959493929190613de4565b60405160208183030381529060405290506134e1565b60098360ff1614156134e05783600060078110613379577f4e487b7100000000000000000000000000000000000000000000000000000000600052603260045260246000fd5b6020020151846001600781106133b8577f4e487b7100000000000000000000000000000000000000000000000000000000600052603260045260246000fd5b6020020151856002600781106133f7577f4e487b7100000000000000000000000000000000000000000000000000000000600052603260045260246000fd5b602002015186600360078110613436577f4e487b7100000000000000000000000000000000000000000000000000000000600052603260045260246000fd5b602002015187600560078110613475577f4e487b7100000000000000000000000000000000000000000000000000000000600052603260045260246000fd5b6020020151886006600781106134b4577f4e487b7100000000000000000000000000000000000000000000000000000000600052603260045260246000fd5b60200201516040516020016134ce96959493929190613d8c565b60405160208183030381529060405290505b5b5b5b5b5b5b5b5b5b8091505092915050565b6040518060800160405280600490602082028036833780820191505090505090565b60006135286135238461425f565b61423a565b90508281526020810184848401111561354057600080fd5b61354b84828561449a565b509392505050565b60008135905061356281614fd0565b92915050565b60008135905061357781614fe7565b92915050565b60008135905061358c81614ffe565b92915050565b6000815190506135a181614ffe565b92915050565b600082601f8301126135b857600080fd5b81356135c8848260208601613515565b91505092915050565b6000813590506135e081615015565b92915050565b6000602082840312156135f857600080fd5b600061360684828501613553565b91505092915050565b6000806040838503121561362257600080fd5b600061363085828601613553565b925050602061364185828601613553565b9150509250929050565b60008060006060848603121561366057600080fd5b600061366e86828701613553565b935050602061367f86828701613553565b9250506040613690868287016135d1565b9150509250925092565b600080600080608085870312156136b057600080fd5b60006136be87828801613553565b94505060206136cf87828801613553565b93505060406136e0878288016135d1565b925050606085013567ffffffffffffffff8111156136fd57600080fd5b613709878288016135a7565b91505092959194509250565b6000806040838503121561372857600080fd5b600061373685828601613553565b925050602061374785828601613568565b9150509250929050565b6000806040838503121561376457600080fd5b600061377285828601613553565b9250506020613783858286016135d1565b9150509250929050565b60006020828403121561379f57600080fd5b60006137ad8482850161357d565b91505092915050565b6000602082840312156137c857600080fd5b60006137d684828501613592565b91505092915050565b6000602082840312156137f157600080fd5b60006137ff848285016135d1565b91505092915050565b61381181614419565b82525050565b6138208161442b565b82525050565b600061383182614290565b61383b81856142a6565b935061384b8185602086016144a9565b613854816146a6565b840191505092915050565b600061386a8261429b565b61387481856142b7565b93506138848185602086016144a9565b61388d816146a6565b840191505092915050565b60006138a38261429b565b6138ad81856142c8565b93506138bd8185602086016144a9565b80840191505092915050565b60006138d660d7836142c8565b91506138e1826146b7565b60d782019050919050565b60006138f96032836142b7565b9150613904826147c4565b604082019050919050565b600061391c6026836142b7565b915061392782614813565b604082019050919050565b600061393f601c836142b7565b915061394a82614862565b602082019050919050565b60006139626036836142b7565b915061396d8261488b565b604082019050919050565b6000613985602e836142b7565b9150613990826148da565b604082019050919050565b60006139a8600f836142b7565b91506139b382614929565b602082019050919050565b60006139cb6019836142b7565b91506139d682614952565b602082019050919050565b60006139ee6038836142b7565b91506139f98261497b565b604082019050919050565b6000613a116001836142c8565b9150613a1c826149ca565b600182019050919050565b6000613a34602a836142b7565b9150613a3f826149f3565b604082019050919050565b6000613a576029836142b7565b9150613a6282614a42565b604082019050919050565b6000613a7a6007836142c8565b9150613a8582614a91565b600782019050919050565b6000613a9d6002836142c8565b9150613aa882614aba565b600282019050919050565b6000613ac06021836142c8565b9150613acb82614ae3565b602182019050919050565b6000613ae36020836142b7565b9150613aee82614b32565b602082019050919050565b6000613b06602c836142b7565b9150613b1182614b5b565b604082019050919050565b6000613b296062836142c8565b9150613b3482614baa565b606282019050919050565b6000613b4c6020836142b7565b9150613b5782614c45565b602082019050919050565b6000613b6f6010836142b7565b9150613b7a82614c6e565b602082019050919050565b6000613b92602f836142b7565b9150613b9d82614c97565b604082019050919050565b6000613bb56021836142b7565b9150613bc082614ce6565b604082019050919050565b6000613bd8601d836142c8565b9150613be382614d35565b601d82019050919050565b6000613bfb601b836142c8565b9150613c0682614d5e565b601b82019050919050565b6000613c1e6031836142b7565b9150613c2982614d87565b604082019050919050565b6000613c41600f836142c8565b9150613c4c82614dd6565b600f82019050919050565b6000613c64601f836142b7565b9150613c6f82614dff565b602082019050919050565b6000613c88610153836142c8565b9150613c9382614e28565b61015382019050919050565b613ca881614483565b82525050565b6000613cba8285613898565b9150613cc68284613898565b91508190509392505050565b6000613cde8286613898565b9150613cea8285613898565b9150613cf68284613898565b9150819050949350505050565b6000613d0f8287613898565b9150613d1b8286613898565b9150613d278285613898565b9150613d338284613898565b915081905095945050505050565b6000613d4d8288613898565b9150613d598287613898565b9150613d658286613898565b9150613d718285613898565b9150613d7d8284613898565b91508190509695505050505050565b6000613d988289613898565b9150613da48288613898565b9150613db08287613898565b9150613dbc8286613898565b9150613dc88285613898565b9150613dd48284613898565b9150819050979650505050505050565b6000613df0828a613898565b9150613dfc8289613898565b9150613e088288613898565b9150613e148287613898565b9150613e208286613898565b9150613e2c8285613898565b9150613e388284613898565b915081905098975050505050505050565b6000613e54826138c9565b9150613e608287613898565b9150613e6b82613a6d565b9150613e778286613898565b9150613e8282613bee565b9150613e8e8285613898565b9150613e9982613a6d565b9150613ea58284613898565b9150613eb082613c7a565b915081905095945050505050565b6000613ec982613bcb565b9150613ed58284613898565b915081905092915050565b6000613eeb82613c34565b9150613ef78285613898565b9150613f0282613a04565b9150613f0d82613ab3565b9150613f1882613b1c565b9150613f248284613898565b9150613f2f82613a90565b91508190509392505050565b6000602082019050613f506000830184613808565b92915050565b6000608082019050613f6b6000830187613808565b613f786020830186613808565b613f856040830185613c9f565b8181036060830152613f978184613826565b905095945050505050565b6000602082019050613fb76000830184613817565b92915050565b60006020820190508181036000830152613fd7818461385f565b905092915050565b60006020820190508181036000830152613ff8816138ec565b9050919050565b600060208201905081810360008301526140188161390f565b9050919050565b6000602082019050818103600083015261403881613932565b9050919050565b6000602082019050818103600083015261405881613955565b9050919050565b6000602082019050818103600083015261407881613978565b9050919050565b600060208201905081810360008301526140988161399b565b9050919050565b600060208201905081810360008301526140b8816139be565b9050919050565b600060208201905081810360008301526140d8816139e1565b9050919050565b600060208201905081810360008301526140f881613a27565b9050919050565b6000602082019050818103600083015261411881613a4a565b9050919050565b6000602082019050818103600083015261413881613ad6565b9050919050565b6000602082019050818103600083015261415881613af9565b9050919050565b6000602082019050818103600083015261417881613b3f565b9050919050565b6000602082019050818103600083015261419881613b62565b9050919050565b600060208201905081810360008301526141b881613b85565b9050919050565b600060208201905081810360008301526141d881613ba8565b9050919050565b600060208201905081810360008301526141f881613c11565b9050919050565b6000602082019050818103600083015261421881613c57565b9050919050565b60006020820190506142346000830184613c9f565b92915050565b6000614244614255565b9050614250828261450e565b919050565b6000604051905090565b600067ffffffffffffffff82111561427a57614279614677565b5b614283826146a6565b9050602081019050919050565b600081519050919050565b600081519050919050565b600082825260208201905092915050565b600082825260208201905092915050565b600081905092915050565b60006142de82614483565b91506142e983614483565b9250827fffffffffffffffffffffffffffffffffffffffffffffffffffffffffffffffff0382111561431e5761431d6145ea565b5b828201905092915050565b600061433482614483565b915061433f83614483565b92508261434f5761434e614619565b5b828204905092915050565b60006143658261448d565b91506143708361448d565b9250826143805761437f614619565b5b828204905092915050565b600061439682614483565b91506143a183614483565b9250817fffffffffffffffffffffffffffffffffffffffffffffffffffffffffffffffff04831182151516156143da576143d96145ea565b5b828202905092915050565b60006143f082614483565b91506143fb83614483565b92508282101561440e5761440d6145ea565b5b828203905092915050565b600061442482614463565b9050919050565b60008115159050919050565b60007fffffffff0000000000000000000000000000000000000000000000000000000082169050919050565b600073ffffffffffffffffffffffffffffffffffffffff82169050919050565b6000819050919050565b600060ff82169050919050565b82818337600083830152505050565b60005b838110156144c75780820151818401526020810190506144ac565b838111156144d6576000848401525b50505050565b600060028204905060018216806144f457607f821691505b6020821081141561450857614507614648565b5b50919050565b614517826146a6565b810181811067ffffffffffffffff8211171561453657614535614677565b5b80604052505050565b600061454a82614483565b91507fffffffffffffffffffffffffffffffffffffffffffffffffffffffffffffffff82141561457d5761457c6145ea565b5b600182019050919050565b600061459382614483565b915061459e83614483565b9250826145ae576145ad614619565b5b828206905092915050565b60006145c48261448d565b91506145cf8361448d565b9250826145df576145de614619565b5b828206905092915050565b7f4e487b7100000000000000000000000000000000000000000000000000000000600052601160045260246000fd5b7f4e487b7100000000000000000000000000000000000000000000000000000000600052601260045260246000fd5b7f4e487b7100000000000000000000000000000000000000000000000000000000600052602260045260246000fd5b7f4e487b7100000000000000000000000000000000000000000000000000000000600052604160045260246000fd5b6000601f19601f8301169050919050565b7f3c7376672076696577426f783d2730203020353030203530302720786d6c6e7360008201527f3d27687474703a2f2f7777772e77332e6f72672f323030302f7376672720786d60208201527f6c6e733a62783d2768747470733a2f2f626f78792d7376672e636f6d273e3c6760408201527f207374726f6b653d2723666666666666272066696c6c3d27236666666666272060608201527f7472616e73666f726d3d276d617472697828342e3833373038322c20302c203060808201527f2c20352e3331303937322c2035392e3231393436372c202d34352e343737313560a08201527f2927203e3c672069643d276d696e75746573273e3c673e00000000000000000060c082015250565b7f4552433732313a207472616e7366657220746f206e6f6e20455243373231526560008201527f63656976657220696d706c656d656e7465720000000000000000000000000000602082015250565b7f4f776e61626c653a206e6577206f776e657220697320746865207a65726f206160008201527f6464726573730000000000000000000000000000000000000000000000000000602082015250565b7f4552433732313a20746f6b656e20616c7265616479206d696e74656400000000600082015250565b7f4552433732314f776e6572436865636b3a206f70657261746f7220717565727960008201527f20666f72206e6f6e6578697374656e7420746f6b656e00000000000000000000602082015250565b7f4552433732314f776e6572436865636b3a207472616e7366657220746f20746860008201527f65207a65726f2061646472657373000000000000000000000000000000000000602082015250565b7f4e6f7420656e6f7567682066756e640000000000000000000000000000000000600082015250565b7f4552433732313a20617070726f766520746f2063616c6c657200000000000000600082015250565b7f4552433732313a20617070726f76652063616c6c6572206973206e6f74206f7760008201527f6e6572206e6f7220617070726f76656420666f7220616c6c0000000000000000602082015250565b7f2200000000000000000000000000000000000000000000000000000000000000600082015250565b7f4552433732313a2062616c616e636520717565727920666f7220746865207a6560008201527f726f206164647265737300000000000000000000000000000000000000000000602082015250565b7f4552433732313a206f776e657220717565727920666f72206e6f6e657869737460008201527f656e7420746f6b656e0000000000000000000000000000000000000000000000602082015250565b7f3c2f673e3c673e00000000000000000000000000000000000000000000000000600082015250565b7f227d000000000000000000000000000000000000000000000000000000000000600082015250565b7f2c207469636b546f636b2e63757272656e7428292e746f537472696e6728292060008201527f2c00000000000000000000000000000000000000000000000000000000000000602082015250565b7f4552433732313a206d696e7420746f20746865207a65726f2061646472657373600082015250565b7f4552433732313a20617070726f76656420717565727920666f72206e6f6e657860008201527f697374656e7420746f6b656e0000000000000000000000000000000000000000602082015250565b7f226465736372697074696f6e223a2022546865206d6f73742076616c7561626c60008201527f65207468696e6720696e2074686520656e7469726520776f726c64222c20226960208201527f6d616765223a2022646174613a696d6167652f7376672b786d6c3b626173653660408201527f342c000000000000000000000000000000000000000000000000000000000000606082015250565b7f4f776e61626c653a2063616c6c6572206973206e6f7420746865206f776e6572600082015250565b7f546f6b656e20494420696e76616c696400000000000000000000000000000000600082015250565b7f4552433732314f776e6572436865636b3a207472616e736665722066726f6d2060008201527f696e636f7272656374206f776e65720000000000000000000000000000000000602082015250565b7f4552433732313a20617070726f76616c20746f2063757272656e74206f776e6560008201527f7200000000000000000000000000000000000000000000000000000000000000602082015250565b7f646174613a6170706c69636174696f6e2f6a736f6e3b6261736536342c000000600082015250565b7f203c2f673e3c2f673e3c672069643d27686f75727327203e3c673e0000000000600082015250565b7f4552433732313a207472616e736665722063616c6c6572206973206e6f74206f60008201527f776e6572206e6f7220617070726f766564000000000000000000000000000000602082015250565b7f7b226e616d65223a202254696d65200000000000000000000000000000000000600082015250565b7f5265656e7472616e637947756172643a207265656e7472616e742063616c6c00600082015250565b7f203c2f673e3c2f673e3c672069643d27646f7473273e3c673e3c636972636c6560008201527f2063783d273430272063793d2735302720723d273227207374796c653d27706160208201527f696e742d6f726465723a207374726f6b653b207374726f6b653a20726762283060408201527f2c20302c2030293b272f3e203c636972636c652063783d273430272063793d2760608201527f35382720723d273227207374796c653d277061696e742d6f726465723a20737460808201527f726f6b653b207374726f6b653a2072676228302c20302c2030293b272f3e3c2f60a08201527f673e3c2f673e3c2f673e3c74657874207374796c653d2766696c6c3a2072676260c08201527f2835312c2035312c203531293b20666f6e742d66616d696c793a20496d70616360e08201527f743b20666f6e742d73697a653a2033322e3270783b2077686974652d737061636101008201527f653a207072653b2720783d273431392e3439312720793d273439312e313533276101208201527f3e44415920303c2f746578743e3c2f7376673e0000000000000000000000000061014082015250565b614fd981614419565b8114614fe457600080fd5b50565b614ff08161442b565b8114614ffb57600080fd5b50565b61500781614437565b811461501257600080fd5b50565b61501e81614483565b811461502957600080fd5b5056fe3c706174682069643d2762322720643d274d32312c34306c332c3376386c2d332c3263302c302d312d312d312d33762d374332302c34312c32312c34302c32312c34307a27207374796c653d277061696e742d6f726465723a207374726f6b653b207374726f6b653a2072676228302c20302c2030293b272f3e3c706174682069643d2761332720643d274d31372c34306c2d332c3376386c332c3263302c302c312d312c312d33762d374331382c34312c31372c34302c31372c34307a27207374796c653d277061696e742d6f726465723a207374726f6b653b207374726f6b653a2072676228302c20302c2030293b272f3e3c706174682069643d2761372720643d274d342c36396c332d3368366c332c3363302c302d312c312d332c31682d3643352c37302c342c36392c342c36397a27207374796c653d277061696e742d6f726465723a207374726f6b653b207374726f6b653a2072676228302c20302c2030293b272f3e3c706174682069643d2762362720643d274d33352c35356c2d332c3276386c332c3363302c302c312d312c312d33762d374333362c35362c33352c35352c33352c35357a27207374796c653d277061696e742d6f726465723a207374726f6b653b207374726f6b653a2072676228302c20302c2030293b272f3e3c706f6c79676f6e2069643d2761342720706f696e74733d27372c35322031332c35322031362c35342031332c353620372c353620342c353427207374796c653d277061696e742d6f726465723a207374726f6b653b207374726f6b653a2072676228302c20302c2030293b272f3e3c706174682069643d2762332720643d274d33352c34306c2d332c3376386c332c3263302c302c312d312c312d33762d374333362c34312c33352c34302c33352c34307a27207374796c653d277061696e742d6f726465723a207374726f6b653b207374726f6b653a2072676228302c20302c2030293b272f3e3c706174682069643d2761362720643d274d31372c35356c2d332c3276386c332c3363302c302c312d312c312d33762d374331382c35362c31372c35352c31372c35357a27207374796c653d277061696e742d6f726465723a207374726f6b653b207374726f6b653a2072676228302c20302c2030293b272f3e3c706174682069643d2763312720643d274d34362c33396c332c3368366c332d3363302c302d312d312d332d31682d364334372c33382c34362c33392c34362c33397a27207374796c653d277061696e742d6f726465723a207374726f6b653b207374726f6b653a2072676228302c20302c2030293b272f3e3c706174682069643d2761352720643d274d332c35356c332c3276386c2d332c3363302c302d312d312d312d33762d3743322c35362c332c35352c332c35357a27207374796c653d277061696e742d6f726465723a207374726f6b653b207374726f6b653a2072676228302c20302c2030293b272f3e3c706174682069643d2763332720643d274d35392c34306c2d332c3376386c332c3263302c302c312d312c312d33762d374336302c34312c35392c34302c35392c34307a27207374796c653d277061696e742d6f726465723a207374726f6b653b207374726f6b653a2072676228302c20302c2030293b272f3e3c706174682069643d2764352720643d274d36332c35356c332c3276386c2d332c3363302c302d312d312d312d33762d374336322c35362c36332c35352c36332c35357a27207374796c653d277061696e742d6f726465723a207374726f6b653b207374726f6b653a2072676228302c20302c2030293b272f3e3c706174682069643d2763322720643d274d34352c34306c332c3376386c2d332c3263302c302d312d312d312d33762d374334342c34312c34352c34302c34352c34307a27207374796c653d277061696e742d6f726465723a207374726f6b653b207374726f6b653a2072676228302c20302c2030293b272f3e3c706f6c79676f6e2069643d2764342720706f696e74733d2736372c35322037332c35322037362c35342037332c35362036372c35362036342c353427207374796c653d277061696e742d6f726465723a207374726f6b653b207374726f6b653a2072676228302c20302c2030293b272f3e4142434445464748494a4b4c4d4e4f505152535455565758595a6162636465666768696a6b6c6d6e6f707172737475767778797a303132333435363738392b2f3c706f6c79676f6e2069643d2762342720706f696e74733d2732352c35322033312c35322033342c35342033312c35362032352c35362032322c353427207374796c653d277061696e742d6f726465723a207374726f6b653b207374726f6b653a2072676228302c20302c2030293b272f3e3c706174682069643d2762312720643d274d32322c33396c332c3368366c332d3363302c302d312d312d332d31682d364332332c33382c32322c33392c32322c33397a27207374796c653d277061696e742d6f726465723a207374726f6b653b207374726f6b653a2072676228302c20302c2030293b272f3e3c706174682069643d2764332720643d274d37372c34306c2d332c3376386c332c3263302c302c312d312c312d33762d374337382c34312c37372c34302c37372c34307a27207374796c653d277061696e742d6f726465723a207374726f6b653b207374726f6b653a2072676228302c20302c2030293b272f3e3c706174682069643d2762372720643d274d32322c36396c332d3368366c332c3363302c302d312c312d332c31682d364332332c37302c32322c36392c32322c36397a27207374796c653d277061696e742d6f726465723a207374726f6b653b207374726f6b653a2072676228302c20302c2030293b272f3e3c706174682069643d2764372720643d274d36342c36396c332d3368366c332c3363302c302d312c312d332c31682d364336352c37302c36342c36392c36342c36397a27207374796c653d277061696e742d6f726465723a207374726f6b653b207374726f6b653a2072676228302c20302c2030293b272f3e3c706174682069643d2763352720643d274d34352c35356c332c3276386c2d332c3363302c302d312d312d312d33762d374334342c35362c34352c35352c34352c35357a27207374796c653d277061696e742d6f726465723a207374726f6b653b207374726f6b653a2072676228302c20302c2030293b272f3e3c706174682069643d2763362720643d274d35392c35356c2d332c3276386c332c3363302c302c312d312c312d33762d374336302c35362c35392c35352c35392c35357a27207374796c653d277061696e742d6f726465723a207374726f6b653b207374726f6b653a2072676228302c20302c2030293b272f3e3c706174682069643d2764312720643d274d36342c33396c332c3368366c332d3363302c302d312d312d332d31682d364336352c33382c36342c33392c36342c33397a27207374796c653d277061696e742d6f726465723a207374726f6b653b207374726f6b653a2072676228302c20302c2030293b272f3e3c706174682069643d2762352720643d274d32312c35356c332c3276386c2d332c3363302c302d312d312d312d33762d374332302c35362c32312c35352c32312c35357a27207374796c653d277061696e742d6f726465723a207374726f6b653b207374726f6b653a2072676228302c20302c2030293b272f3e3c706174682069643d2763372720643d274d34362c36396c332d3368366c332c3363302c302d312c312d332c31682d364334372c37302c34362c36392c34362c36397a27207374796c653d277061696e742d6f726465723a207374726f6b653b207374726f6b653a2072676228302c20302c2030293b272f3e3c706f6c79676f6e2069643d2763342720706f696e74733d2734392c35322035352c35322035382c35342035352c35362034392c35362034362c353427207374796c653d277061696e742d6f726465723a207374726f6b653b207374726f6b653a2072676228302c20302c2030293b272f3e3c706174682069643d2761312720643d274d342c33396c332c3368366c332d3363302c302d312d312d332d31682d3643352c33382c342c33392c342c33397a27207374796c653d277061696e742d6f726465723a207374726f6b653b207374726f6b653a2072676228302c20302c2030293b272f3e3c706174682069643d2764362720643d274d37372c35356c2d332c3276386c332c3363302c302c312d312c312d33762d374337382c35362c37372c35352c37372c35357a27207374796c653d277061696e742d6f726465723a207374726f6b653b207374726f6b653a2072676228302c20302c2030293b272f3e3c706174682069643d2764322720643d274d36332c34306c332c3376386c2d332c3263302c302d312d312d312d33762d374336322c34312c36332c34302c36332c34307a27207374796c653d277061696e742d6f726465723a207374726f6b653b207374726f6b653a2072676228302c20302c2030293b272f3e3c706174682069643d2761322720643d274d332c34306c332c3376386c2d332c3263302c302d312d312d312d33762d3743322c34312c332c34302c332c34307a27207374796c653d277061696e742d6f726465723a207374726f6b653b207374726f6b653a2072676228302c20302c2030293b272f3ea264697066735822122023896d7d3e9b223fcb738f44e12eeeaff44b99194d76fb5160aa7243e33ea34b64736f6c63430008040033",
  "linkReferences": {},
  "deployedLinkReferences": {}
}