{
  "_format": "hh-sol-artifact-1",
  "contractName": "ERC721OwnerCheck",
  "sourceName": "contracts/ERC721OwnerCheck.sol",
  "abi": [
    {
      "inputs": [
        {
          "internalType": "string",
          "name": "name_",
          "type": "string"
        },
        {
          "internalType": "string",
          "name": "symbol_",
          "type": "string"
        }
      ],
      "stateMutability": "nonpayable",
      "type": "constructor"
    },
    {
      "anonymous": false,
      "inputs": [
        {
          "indexed": true,
          "internalType": "address",
          "name": "owner",
          "type": "address"
        },
        {
          "indexed": true,
          "internalType": "address",
          "name": "approved",
          "type": "address"
        },
        {
          "indexed": true,
          "internalType": "uint256",
          "name": "tokenId",
          "type": "uint256"
        }
      ],
      "name": "Approval",
      "type": "event"
    },
    {
      "anonymous": false,
      "inputs": [
        {
          "indexed": true,
          "internalType": "address",
          "name": "owner",
          "type": "address"
        },
        {
          "indexed": true,
          "internalType": "address",
          "name": "operator",
          "type": "address"
        },
        {
          "indexed": false,
          "internalType": "bool",
          "name": "approved",
          "type": "bool"
        }
      ],
      "name": "ApprovalForAll",
      "type": "event"
    },
    {
      "anonymous": false,
      "inputs": [
        {
          "indexed": true,
          "internalType": "address",
          "name": "from",
          "type": "address"
        },
        {
          "indexed": true,
          "internalType": "address",
          "name": "to",
          "type": "address"
        },
        {
          "indexed": true,
          "internalType": "uint256",
          "name": "tokenId",
          "type": "uint256"
        }
      ],
      "name": "Transfer",
      "type": "event"
    },
    {
      "inputs": [
        {
          "internalType": "address",
          "name": "to",
          "type": "address"
        },
        {
          "internalType": "uint256",
          "name": "tokenId",
          "type": "uint256"
        }
      ],
      "name": "approve",
      "outputs": [],
      "stateMutability": "nonpayable",
      "type": "function"
    },
    {
      "inputs": [
        {
          "internalType": "address",
          "name": "owner",
          "type": "address"
        }
      ],
      "name": "balanceOf",
      "outputs": [
        {
          "internalType": "uint256",
          "name": "",
          "type": "uint256"
        }
      ],
      "stateMutability": "view",
      "type": "function"
    },
    {
      "inputs": [
        {
          "internalType": "uint256",
          "name": "tokenId",
          "type": "uint256"
        }
      ],
      "name": "getApproved",
      "outputs": [
        {
          "internalType": "address",
          "name": "",
          "type": "address"
        }
      ],
      "stateMutability": "view",
      "type": "function"
    },
    {
      "inputs": [
        {
          "internalType": "address",
          "name": "owner",
          "type": "address"
        },
        {
          "internalType": "address",
          "name": "operator",
          "type": "address"
        }
      ],
      "name": "isApprovedForAll",
      "outputs": [
        {
          "internalType": "bool",
          "name": "",
          "type": "bool"
        }
      ],
      "stateMutability": "view",
      "type": "function"
    },
    {
      "inputs": [
        {
          "internalType": "uint256",
          "name": "_id",
          "type": "uint256"
        }
      ],
      "name": "isOwned",
      "outputs": [
        {
          "internalType": "bool",
          "name": "",
          "type": "bool"
        }
      ],
      "stateMutability": "view",
      "type": "function"
    },
    {
      "inputs": [],
      "name": "name",
      "outputs": [
        {
          "internalType": "string",
          "name": "",
          "type": "string"
        }
      ],
      "stateMutability": "view",
      "type": "function"
    },
    {
      "inputs": [
        {
          "internalType": "uint256",
          "name": "tokenId",
          "type": "uint256"
        }
      ],
      "name": "ownerOf",
      "outputs": [
        {
          "internalType": "address",
          "name": "",
          "type": "address"
        }
      ],
      "stateMutability": "view",
      "type": "function"
    },
    {
      "inputs": [
        {
          "internalType": "address",
          "name": "from",
          "type": "address"
        },
        {
          "internalType": "address",
          "name": "to",
          "type": "address"
        },
        {
          "internalType": "uint256",
          "name": "tokenId",
          "type": "uint256"
        }
      ],
      "name": "safeTransferFrom",
      "outputs": [],
      "stateMutability": "nonpayable",
      "type": "function"
    },
    {
      "inputs": [
        {
          "internalType": "address",
          "name": "from",
          "type": "address"
        },
        {
          "internalType": "address",
          "name": "to",
          "type": "address"
        },
        {
          "internalType": "uint256",
          "name": "tokenId",
          "type": "uint256"
        },
        {
          "internalType": "bytes",
          "name": "_data",
          "type": "bytes"
        }
      ],
      "name": "safeTransferFrom",
      "outputs": [],
      "stateMutability": "nonpayable",
      "type": "function"
    },
    {
      "inputs": [
        {
          "internalType": "address",
          "name": "operator",
          "type": "address"
        },
        {
          "internalType": "bool",
          "name": "approved",
          "type": "bool"
        }
      ],
      "name": "setApprovalForAll",
      "outputs": [],
      "stateMutability": "nonpayable",
      "type": "function"
    },
    {
      "inputs": [
        {
          "internalType": "bytes4",
          "name": "interfaceId",
          "type": "bytes4"
        }
      ],
      "name": "supportsInterface",
      "outputs": [
        {
          "internalType": "bool",
          "name": "",
          "type": "bool"
        }
      ],
      "stateMutability": "view",
      "type": "function"
    },
    {
      "inputs": [],
      "name": "symbol",
      "outputs": [
        {
          "internalType": "string",
          "name": "",
          "type": "string"
        }
      ],
      "stateMutability": "view",
      "type": "function"
    },
    {
      "inputs": [
        {
          "internalType": "uint256",
          "name": "tokenId",
          "type": "uint256"
        }
      ],
      "name": "tokenURI",
      "outputs": [
        {
          "internalType": "string",
          "name": "",
          "type": "string"
        }
      ],
      "stateMutability": "view",
      "type": "function"
    },
    {
      "inputs": [
        {
          "internalType": "address",
          "name": "from",
          "type": "address"
        },
        {
          "internalType": "address",
          "name": "to",
          "type": "address"
        },
        {
          "internalType": "uint256",
          "name": "tokenId",
          "type": "uint256"
        }
      ],
      "name": "transferFrom",
      "outputs": [],
      "stateMutability": "nonpayable",
      "type": "function"
    }
  ],
  "bytecode": "0x60806040523480156200001157600080fd5b5060405162001714380380620017148339810160408190526200003491620001c1565b81516200004990600090602085019062000068565b5080516200005f90600190602084019062000068565b5050506200027b565b828054620000769062000228565b90600052602060002090601f0160209004810192826200009a5760008555620000e5565b82601f10620000b557805160ff1916838001178555620000e5565b82800160010185558215620000e5579182015b82811115620000e5578251825591602001919060010190620000c8565b50620000f3929150620000f7565b5090565b5b80821115620000f35760008155600101620000f8565b600082601f8301126200011f578081fd5b81516001600160401b03808211156200013c576200013c62000265565b604051601f8301601f19908116603f0116810190828211818310171562000167576200016762000265565b8160405283815260209250868385880101111562000183578485fd5b8491505b83821015620001a6578582018301518183018401529082019062000187565b83821115620001b757848385830101525b9695505050505050565b60008060408385031215620001d4578182fd5b82516001600160401b0380821115620001eb578384fd5b620001f9868387016200010e565b935060208501519150808211156200020f578283fd5b506200021e858286016200010e565b9150509250929050565b600181811c908216806200023d57607f821691505b602082108114156200025f57634e487b7160e01b600052602260045260246000fd5b50919050565b634e487b7160e01b600052604160045260246000fd5b611489806200028b6000396000f3fe608060405234801561001057600080fd5b50600436106100ea5760003560e01c80636352211e1161008c578063a22cb46511610066578063a22cb465146101f9578063b88d4fde1461020c578063c87b56dd1461021f578063e985e9c51461023257600080fd5b80636352211e146101bd57806370a08231146101d057806395d89b41146101f157600080fd5b8063095ea7b3116100c8578063095ea7b31461015757806323b872dd1461016c57806342842e0e1461017f578063599f689c1461019257600080fd5b806301ffc9a7146100ef57806306fdde0314610117578063081812fc1461012c575b600080fd5b6101026100fd366004611225565b61026e565b60405190151581526020015b60405180910390f35b61011f61030b565b60405161010e919061130c565b61013f61013a36600461125d565b61039d565b6040516001600160a01b03909116815260200161010e565b61016a6101653660046111fc565b610448565b005b61016a61017a3660046110b2565b61057a565b61016a61018d3660046110b2565b610601565b6101026101a036600461125d565b6000908152600260205260409020546001600160a01b0316151590565b61013f6101cb36600461125d565b61061c565b6101e36101de366004611066565b6106a7565b60405190815260200161010e565b61011f610741565b61016a6102073660046111c2565b610750565b61016a61021a3660046110ed565b61075f565b61011f61022d36600461125d565b6107ed565b610102610240366004611080565b6001600160a01b03918216600090815260056020908152604080832093909416825291909152205460ff1690565b60006001600160e01b031982167f80ac58cd0000000000000000000000000000000000000000000000000000000014806102d157506001600160e01b031982167f5b5e139f00000000000000000000000000000000000000000000000000000000145b8061030557507f01ffc9a7000000000000000000000000000000000000000000000000000000006001600160e01b03198316145b92915050565b60606000805461031a9061138e565b80601f01602080910402602001604051908101604052809291908181526020018280546103469061138e565b80156103935780601f1061036857610100808354040283529160200191610393565b820191906000526020600020905b81548152906001019060200180831161037657829003601f168201915b5050505050905090565b6000818152600260205260408120546001600160a01b031661042c5760405162461bcd60e51b815260206004820152602c60248201527f4552433732313a20617070726f76656420717565727920666f72206e6f6e657860448201527f697374656e7420746f6b656e000000000000000000000000000000000000000060648201526084015b60405180910390fd5b506000908152600460205260409020546001600160a01b031690565b60006104538261061c565b9050806001600160a01b0316836001600160a01b031614156104dd5760405162461bcd60e51b815260206004820152602160248201527f4552433732313a20617070726f76616c20746f2063757272656e74206f776e6560448201527f72000000000000000000000000000000000000000000000000000000000000006064820152608401610423565b336001600160a01b03821614806104f957506104f98133610240565b61056b5760405162461bcd60e51b815260206004820152603860248201527f4552433732313a20617070726f76652063616c6c6572206973206e6f74206f7760448201527f6e6572206e6f7220617070726f76656420666f7220616c6c00000000000000006064820152608401610423565b61057583836108e3565b505050565b610584338261095e565b6105f65760405162461bcd60e51b815260206004820152603160248201527f4552433732313a207472616e736665722063616c6c6572206973206e6f74206f60448201527f776e6572206e6f7220617070726f7665640000000000000000000000000000006064820152608401610423565b610575838383610a66565b6105758383836040518060200160405280600081525061075f565b6000818152600260205260408120546001600160a01b0316806103055760405162461bcd60e51b815260206004820152602960248201527f4552433732313a206f776e657220717565727920666f72206e6f6e657869737460448201527f656e7420746f6b656e00000000000000000000000000000000000000000000006064820152608401610423565b60006001600160a01b0382166107255760405162461bcd60e51b815260206004820152602a60248201527f4552433732313a2062616c616e636520717565727920666f7220746865207a6560448201527f726f2061646472657373000000000000000000000000000000000000000000006064820152608401610423565b506001600160a01b031660009081526003602052604090205490565b60606001805461031a9061138e565b61075b338383610c41565b5050565b610769338361095e565b6107db5760405162461bcd60e51b815260206004820152603160248201527f4552433732313a207472616e736665722063616c6c6572206973206e6f74206f60448201527f776e6572206e6f7220617070726f7665640000000000000000000000000000006064820152608401610423565b6107e784848484610d10565b50505050565b6000818152600260205260409020546060906001600160a01b031661087a5760405162461bcd60e51b815260206004820152602f60248201527f4552433732314d657461646174613a2055524920717565727920666f72206e6f60448201527f6e6578697374656e7420746f6b656e00000000000000000000000000000000006064820152608401610423565b600061089160408051602081019091526000815290565b905060008151116108b157604051806020016040528060008152506108dc565b806108bb84610d99565b6040516020016108cc9291906112a1565b6040516020818303038152906040525b9392505050565b6000818152600460205260409020805473ffffffffffffffffffffffffffffffffffffffff19166001600160a01b03841690811790915581906109258261061c565b6001600160a01b03167f8c5be1e5ebec7d5bd14f71427d1e84f3dd0314c0f7b2291e5b200ac8c7c3b92560405160405180910390a45050565b6000818152600260205260408120546001600160a01b03166109e85760405162461bcd60e51b815260206004820152603660248201527f4552433732314f776e6572436865636b3a206f70657261746f7220717565727960448201527f20666f72206e6f6e6578697374656e7420746f6b656e000000000000000000006064820152608401610423565b60006109f38361061c565b9050806001600160a01b0316846001600160a01b03161480610a2e5750836001600160a01b0316610a238461039d565b6001600160a01b0316145b80610a5e57506001600160a01b0380821660009081526005602090815260408083209388168352929052205460ff165b949350505050565b826001600160a01b0316610a798261061c565b6001600160a01b031614610af55760405162461bcd60e51b815260206004820152602f60248201527f4552433732314f776e6572436865636b3a207472616e736665722066726f6d2060448201527f696e636f7272656374206f776e657200000000000000000000000000000000006064820152608401610423565b6001600160a01b038216610b715760405162461bcd60e51b815260206004820152602e60248201527f4552433732314f776e6572436865636b3a207472616e7366657220746f20746860448201527f65207a65726f20616464726573730000000000000000000000000000000000006064820152608401610423565b610b7c6000826108e3565b6001600160a01b0383166000908152600360205260408120805460019290610ba590849061134b565b90915550506001600160a01b0382166000908152600360205260408120805460019290610bd390849061131f565b9091555050600081815260026020526040808220805473ffffffffffffffffffffffffffffffffffffffff19166001600160a01b0386811691821790925591518493918716917fddf252ad1be2c89b69c2b068fc378daa952ba7f163c4a11628f55a4df523b3ef91a4505050565b816001600160a01b0316836001600160a01b03161415610ca35760405162461bcd60e51b815260206004820152601960248201527f4552433732313a20617070726f766520746f2063616c6c6572000000000000006044820152606401610423565b6001600160a01b03838116600081815260056020908152604080832094871680845294825291829020805460ff191686151590811790915591519182527f17307eab39ab6107e8899845ad3d59bd9653f200f220920489ca2b5937696c31910160405180910390a3505050565b610d1b848484610a66565b610d2784848484610ee7565b6107e75760405162461bcd60e51b815260206004820152603260248201527f4552433732313a207472616e7366657220746f206e6f6e20455243373231526560448201527f63656976657220696d706c656d656e74657200000000000000000000000000006064820152608401610423565b606081610dd957505060408051808201909152600181527f3000000000000000000000000000000000000000000000000000000000000000602082015290565b8160005b8115610e035780610ded816113c9565b9150610dfc9050600a83611337565b9150610ddd565b60008167ffffffffffffffff811115610e2c57634e487b7160e01b600052604160045260246000fd5b6040519080825280601f01601f191660200182016040528015610e56576020820181803683370190505b5090505b8415610a5e57610e6b60018361134b565b9150610e78600a866113e4565b610e8390603061131f565b60f81b818381518110610ea657634e487b7160e01b600052603260045260246000fd5b60200101907effffffffffffffffffffffffffffffffffffffffffffffffffffffffffffff1916908160001a905350610ee0600a86611337565b9450610e5a565b60006001600160a01b0384163b1561103f57604051630a85bd0160e11b81526001600160a01b0385169063150b7a0290610f2b9033908990889088906004016112d0565b602060405180830381600087803b158015610f4557600080fd5b505af1925050508015610f75575060408051601f3d908101601f19168201909252610f7291810190611241565b60015b611025573d808015610fa3576040519150601f19603f3d011682016040523d82523d6000602084013e610fa8565b606091505b50805161101d5760405162461bcd60e51b815260206004820152603260248201527f4552433732313a207472616e7366657220746f206e6f6e20455243373231526560448201527f63656976657220696d706c656d656e74657200000000000000000000000000006064820152608401610423565b805181602001fd5b6001600160e01b031916630a85bd0160e11b149050610a5e565b506001949350505050565b80356001600160a01b038116811461106157600080fd5b919050565b600060208284031215611077578081fd5b6108dc8261104a565b60008060408385031215611092578081fd5b61109b8361104a565b91506110a96020840161104a565b90509250929050565b6000806000606084860312156110c6578081fd5b6110cf8461104a565b92506110dd6020850161104a565b9150604084013590509250925092565b60008060008060808587031215611102578081fd5b61110b8561104a565b93506111196020860161104a565b925060408501359150606085013567ffffffffffffffff8082111561113c578283fd5b818701915087601f83011261114f578283fd5b81358181111561116157611161611424565b604051601f8201601f19908116603f0116810190838211818310171561118957611189611424565b816040528281528a60208487010111156111a1578586fd5b82602086016020830137918201602001949094529598949750929550505050565b600080604083850312156111d4578182fd5b6111dd8361104a565b9150602083013580151581146111f1578182fd5b809150509250929050565b6000806040838503121561120e578182fd5b6112178361104a565b946020939093013593505050565b600060208284031215611236578081fd5b81356108dc8161143a565b600060208284031215611252578081fd5b81516108dc8161143a565b60006020828403121561126e578081fd5b5035919050565b6000815180845261128d816020860160208601611362565b601f01601f19169290920160200192915050565b600083516112b3818460208801611362565b8351908301906112c7818360208801611362565b01949350505050565b60006001600160a01b038087168352808616602084015250836040830152608060608301526113026080830184611275565b9695505050505050565b6020815260006108dc6020830184611275565b60008219821115611332576113326113f8565b500190565b6000826113465761134661140e565b500490565b60008282101561135d5761135d6113f8565b500390565b60005b8381101561137d578181015183820152602001611365565b838111156107e75750506000910152565b600181811c908216806113a257607f821691505b602082108114156113c357634e487b7160e01b600052602260045260246000fd5b50919050565b60006000198214156113dd576113dd6113f8565b5060010190565b6000826113f3576113f361140e565b500690565b634e487b7160e01b600052601160045260246000fd5b634e487b7160e01b600052601260045260246000fd5b634e487b7160e01b600052604160045260246000fd5b6001600160e01b03198116811461145057600080fd5b5056fea2646970667358221220b33b091660e77ca1affa04ef445ee47893ee876a69436030ee6f89b5d10e428264736f6c63430008040033",
  "linkReferences": {},
  "deployedLinkReferences": {}
}